:100000000C945E000C9486000C9486000C94860080
:100010000C9486000C9486000C9486000C94860048
:100020000C9486000C9486000C9486000C94B40703
:100030000C9486000C9486000C9486000C94860028
:100040000C9412070C9486000C9482070C945C07A5
:100050000C9486000C9486000C9486000C94860008
:100060000C9486000C9486000000000024002700F9
:100070002A0000000000250028002B0004040404CE
:100080000404040402020202020203030303030342
:10009000010204081020408001020408102001021F
:1000A00004081020000000080002010000030407FB
:1000B00000000000000000004B09A40A11241FBE2C
:1000C000CFEFD8E0DEBFCDBF11E0A0E0B1E0E2E8C5
:1000D000F9E102C005900D92AA3DB107D9F723E0DE
:1000E000AAEDB1E001C01D92A231B207E1F710E024
:1000F000CDE5D0E004C02197FE010E94AE0CCC35C6
:10010000D107C9F70E94E2090C94B40C0C940000CA
:100110001F93CF93DF93182FC091E401D091E50195
:100120008A3041F4E881F9810190F081E02D6DE0A1
:10013000CE010995E881F9810190F081E02D612FD0
:10014000CE01099521E030E0019711F430E020E084
:10015000C901DF91CF911F910895CF93DF93C09193
:10016000E401D091E501E881F9810084F185E02D79
:10017000CE010995892BB9F3E881F9810284F385D1
:10018000E02DCE01DF91CF91099490E0FC01EC5578
:10019000FF4F2491FC01E057FF4F3491FC01E458DC
:1001A000FF4FE491EE23C9F0222339F0233001F10F
:1001B000A8F4213019F1223029F1F0E0EE0FFF1FF1
:1001C000EE58FF4FA591B4918FB7F894EC9161115F
:1001D00026C030953E233C938FBF08952730A9F069
:1001E0002830C9F0243049F7809180008F7D03C00A
:1001F000809180008F7780938000DFCF84B58F77E8
:1002000084BDDBCF84B58F7DFBCF8091B0008F772D
:100210008093B000D2CF8091B0008F7DF9CF3E2B7C
:10022000DACF3FB7F8948091E0019091E101A0917D
:10023000E201B091E30126B5A89B05C02F3F19F05C
:100240000196A11DB11D3FBFBA2FA92F982F882756
:10025000BC01CD01620F711D811D911D42E0660F31
:10026000771F881F991F4A95D1F708958F929F9203
:10027000AF92BF92CF92DF92EF92FF920E94110154
:100280004B015C018FE0C82ED12CE12CF12C0E9497
:100290001101681979098A099B09683E7340810533
:1002A0009105A8F321E0C21AD108E108F10888EE0F
:1002B000880E83E0981EA11CB11CC114D104E10476
:1002C000F10429F7FF90EF90DF90CF90BF90AF90AF
:1002D0009F908F900895DC01ED91FC910190F08149
:1002E000E02D0994AF92BF92CF92DF92EF92FF92EE
:1002F0000F931F93CF93DF936C017B018B01040F4E
:10030000151FEB015E01AE18BF08C017D10759F0E9
:100310006991D601ED91FC910190F081E02DC6012B
:100320000995892B79F7C501DF91CF911F910F9125
:10033000FF90EF90DF90CF90BF90AF900895FC01B9
:10034000538D448D252F30E0842F90E0821B930B3A
:10035000541710F0CF96089501970895FC01918DE0
:10036000828D981761F0A28DAE0FBF2FB11D5D96E3
:100370008C91928D9F5F9F73928F90E008958FEF85
:100380009FEF0895FC01918D828D981731F0828D39
:10039000E80FF11D858D90E008958FEF9FEF089590
:1003A000FC01918D228D892F90E0805C9F4F821BF4
:1003B00091098F739927089586E192E00E94D001F8
:1003C00021E0892B09F420E0822F089580E090E05D
:1003D000892B29F00E94DC0181110C940000089502
:1003E000FC01A48DA80FB92FB11DA35ABF4F2C91AA
:1003F000848D90E001968F739927848FA689B789A1
:100400002C93A089B1898C91837080648C93938D97
:10041000848D981306C00288F389E02D80818F7D3A
:1004200080830895EF92FF920F931F93CF93DF93F2
:10043000EC0181E0888F9B8D8C8D98131AC0E88920
:10044000F989808185FF15C09FB7F894EE89FF89EF
:100450006083E889F98980818370806480839FBF8D
:1004600081E090E0DF91CF911F910F91FF90EF908D
:100470000895F62E0B8D10E00F5F1F4F0F7311279D
:10048000E02E8C8D8E110CC00FB607FCFACFE889D8
:10049000F989808185FFF5CFCE010E94F001F1CF6F
:1004A000EB8DEC0FFD2FF11DE35AFF4FF0829FB74C
:1004B000F8940B8FEA89FB8980818062CFCFCF933C
:1004C000DF93EC01888D8823B9F0AA89BB89E8897C
:1004D000F9898C9185FD03C0808186FD0DC00FB622
:1004E00007FCF7CF8C9185FFF2CF808185FFEDCFA0
:1004F000CE010E94F001E9CFDF91CF9108958F9254
:100500009F92AF92BF92FF920F931F93CF93DF936F
:10051000FC016F3F760709F45EC0653B710511F47D
:1005200064EB70E0F0808BE08F1508F44AC08281A4
:1005300008E512E0081B110987FD1395000F111F34
:10054000000F111F8181C8E8D0E0C81BD10987FDC9
:10055000D395CC0FDD1FCC0FDD1F4E010D2E000CEF
:10056000AA08BB089801012E000C440B550B281952
:1005700039094A095B09DB010E94690C24EB30E070
:1005800040E050E00E943F0C820E931EA41EB51E58
:100590008C169D062CF0E801801691060CF4E401FF
:1005A0002297CC0FDD1F2FB7F8948F2D90E0FC0120
:1005B000EE0FFF1FE80FF91FE352FD4FD283C183F7
:1005C0002FBFDF91CF911F910F91FF90BF90AF9000
:1005D0009F908F90089570E060E0A4CFCF93DF9359
:1005E000DC018C918C3008F06DC0CB01FB01E05731
:1005F000FF4F249184589F4FFC018491882399F0E8
:1006000090E0880F991FFC01E859FF4FC591D491E4
:10061000FC01EE58FF4F859194918FB7F894E881D3
:10062000E22BE8838FBF8C91282F30E0F901EE0F89
:10063000FF1FE20FF31FE352FD4F962F9F73608160
:10064000607C692B608311961C92119712961C9204
:1006500012972CE0622F0E94A20C829FB0011124FD
:1006600030E020E0AB01420F531FFA01EE0FFF1FF5
:10067000E40FF51FE352FD4F908196FD16C02F5FEA
:100680003F4F2C30310571F781110FC0109280005F
:1006900082E0809381001092850010928400B19ACC
:1006A00080916F00826080936F00EC918E2F90E0BC
:1006B000FC01EE0FFF1FE80FF91FE352FD4F808191
:1006C000806480838C91DF91CF910895CF93DF93E5
:1006D000EC01E881F9810288F389E02D09958F3FCB
:1006E000980731F02D813E812F5F3F4F3E832D8350
:1006F000DF91CF9108958FEF9FEF089560E070E054
:10070000CB01089590E080E00895FF920F931F932E
:10071000CF93DF938C01EB016F3F7607B9F0F62E94
:10072000EAE06E1306C06DE0F801808991890E94AD
:100730006B016F2DF801808991890E946B01CE01B8
:10074000DF91CF911F910F91FF900895D0E0C0E00D
:10075000F6CF7F928F929F92AF92BF92CF92DF920D
:10076000EF92FF920F931F93CF93DF938C01490178
:100770005A01EB01C12CD12C7601C814D904EA042A
:10078000FB04B4F479908AE0781206C06DE0F801B9
:10079000808991890E946B01672DF8018089918978
:1007A0000E946B01FFEFCF1ADF0AEF0AFF0AE5CFC5
:1007B000C501B401DF91CF911F910F91FF90EF9090
:1007C000DF90CF90BF90AF909F908F907F900895D3
:1007D000CB010895CF93DF93EC0188899989DC01DF
:1007E000ED91FC910084F185E02D0995892BA9F309
:1007F00088899989DC01ED91FC910284F385E02DD3
:10080000DF91CF910994CF93DF93EC018889998987
:10081000DC01ED91FC910084F185E02D0995892B97
:10082000A9F388899989DC01ED91FC910484F5850F
:10083000E02DDF91CF9109948F929F92AF92BF925A
:10084000CF92DF92EF92FF920F931F93CF93DF939C
:100850008C0149015A01EB01C12CD12C7601D80140
:1008600050968D919C91DC01ED91FC910284F38571
:10087000E02D09958F3F61F0C814D904EA04FB0408
:100880003CF48993BFEFCB1ADB0AEB0AFB0AE7CFF4
:10089000C701B601DF91CF911F910F91FF90EF90AB
:1008A000DF90CF90BF90AF909F908F900895DC0124
:1008B00050968D919C91DC01ED91FC910084F18525
:1008C000E02D099490E080E0089590E080E00895A4
:1008D00008950895DC01ED91FC9136970190F08127
:1008E000E02DE80FF91F80E791E0918380838AE78C
:1008F00091E097838683089520E731E0FC013183FE
:1009000020832AE731E0378326830895FB01208185
:100910003181FC0131832083FB01428153812650C8
:100920003109F90120813181820F931FFC0151832C
:10093000408308952CE831E0FC013183208326E9CF
:1009400031E0318F208F60E871E00C948604DC0187
:10095000ED91FC91369720813181820F931F0C9489
:100960009A040895DC01ED91FC9136970190F08195
:10097000E02DE80FF91F8CE591E09183808386E6F6
:1009800091E09383828308952CE531E0FC0131836B
:10099000208326E631E0338322830895FB01208102
:1009A0003181FC0131832083FB0142815381265038
:1009B0003109F90120813181820F931FFC0151839C
:1009C0004083089528EA31E0FC013183208322EB43
:1009D00031E0358B248B6CE971E00C94CE04DC01A2
:1009E000ED91FC91369720813181820F931F0C94F9
:1009F000E2040895089590E080E008951F93CF9356
:100A0000DF93EC01162F8F8580FF0BC0E881F98101
:100A10000084F185E02D20E144E070E060E0CE014B
:100A20000995EB85FC85812F90E02D853E85E217A9
:100A3000F30758F410832B853C852F5F3F4F3C878D
:100A40002B87DF91CF911F910895E881F981028C66
:100A5000F38DE02DBC01CE01DF91CF911F91099460
:100A6000E091B302F091B40236970190F081E02D4D
:100A7000ED54FD4F682F838994890E94FE040196EE
:100A800089F4E091B302F091B40236970190F081BD
:100A9000E02DED54FD4F858123893489232B29F0E6
:100AA0008260858383EB92E008958360FACF8F9212
:100AB0009F92AF92BF92CF92DF92EF92FF920F93ED
:100AC0001F93CF93DF938C0149015A01EB01C12C95
:100AD000D12C7601C814D904EA04FB0464F46991AA
:100AE000C8010E94FE04019641F08FEFC81AD80A8F
:100AF000E80AF80AEFCF75016401C701B601DF917A
:100B0000CF911F910F91FF90EF90DF90CF90BF900A
:100B1000AF909F908F9008954F925F926F927F92C7
:100B20008F929F92AF92BF92CF92DF92EF92FF92FD
:100B30000F931F93CF93DF938C01E091B302F09159
:100B4000B40236970190F081E02DED54FD4FC1893C
:100B5000D2892097E9F0E881F98136970190F081F8
:100B6000E02DEC0FFD1F83899489DC01ED91FC9150
:100B70000484F585E02D0995019651F4E881F98109
:100B8000369780819181C80FD91F8D8181608D83B7
:100B9000F80101900020E9F73197E01BF10B4F01BC
:100BA000B12CA12CE091B302F091B40236970190E0
:100BB000F081E02DED54FD4FC484D584E684F784A4
:100BC000C818D908EA08FB08838194818E70992798
:100BD000049729F526013701E091B302F091B402A0
:100BE00036970190F081E02DED54FD4F141415045B
:100BF000160417044CF421E0421A510861087108E8
:100C000080890E943005E8CFD701C601F7FE03C0F6
:100C100080E090E0DC01C81AD90AEA0AFB0AE091F8
:100C2000B302F091B40236970190F081E02DED54BB
:100C3000FD4FC389D4898F8580FF0BC0E881F9817E
:100C40000084F185E02D20E144E070E060E0CE0119
:100C50000995E881F981008CF18DE02DA5019401C1
:100C6000B801CE0109952091B3023091B4026F3FD3
:100C70007F4F71F4F90136970190F081E02DED542A
:100C8000FD4F858143895489452B39F182608583E5
:100C900026503109D901ED91FC91ED54FD4F83812E
:100CA00094818E7099270297D1F4E091B302F0916C
:100CB000B40236970190F081E02DED54FD4F1C14E5
:100CC0001D041E041F045CF4B1E0CB1AD108E10836
:100CD000F10880890E943005E8CF8360D8CFE09189
:100CE000B302F091B40236970190F081E02DED54FB
:100CF000FD4F148615861686178683EB92E0DF91EA
:100D0000CF911F910F91FF90EF90DF90CF90BF9008
:100D1000AF909F908F907F906F905F904F900895CD
:100D20000C94AF0BDC01ED91FC9136972081318161
:100D3000820F931F0C949006CF93DF93EC0188EC05
:100D400091E00E948C058CEC91E00E948C058CEC6B
:100D500091E021E08E3C920711F40E948C058CEC0E
:100D600091E0E1E0843D9E0711F40E948C0588E04B
:100D700090E09B838A831D821C8280E490E00E9425
:100D8000130B99838883009749F0FC01108211822C
:100D900012821382148215821682178281E090E0FB
:100DA0009D838C83CE01DF91CF910895CF93DF9304
:100DB000EC010E94E204CE01DF91CF910C94AF0BC5
:100DC000DC01ED91FC91369720813181820F931FD8
:100DD0000C94D606CF93DF93EC010E949A04CE01C7
:100DE000DF91CF910C94AF0BDC01ED91FC91369724
:100DF00020813181820F931F0C94EA060C94AF0B73
:100E00000C94AF0B0C94AF0BDC01ED91FC91369779
:100E100020813181820F931F0C9402070C94AF0B39
:100E20000C94AF0B1F920F920FB60F9211242F93B9
:100E30003F938F939F93AF93BF938091DC019091E9
:100E4000DD01A091DE01B091DF013091DB0123E0F3
:100E5000230F2D3758F50196A11DB11D2093DB01FD
:100E60008093DC019093DD01A093DE01B093DF015C
:100E70008091E0019091E101A091E201B091E30144
:100E80000196A11DB11D8093E0019093E101A09313
:100E9000E201B093E301BF91AF919F918F913F9198
:100EA0002F910F900FBE0F901F90189526E8230FDB
:100EB0000296A11DB11DD2CF1F920F920FB60F92B5
:100EC00011242F933F934F935F936F937F938F934F
:100ED0009F93AF93BF93EF93FF9386E192E00E94BD
:100EE000F001FF91EF91BF91AF919F918F917F9111
:100EF0006F915F914F913F912F910F900FBE0F9087
:100F00001F9018951F920F920FB60F9211242F93D6
:100F10008F939F93EF93FF93E0912602F091270226
:100F20008081E0912C02F0912D0282FD1BC0908106
:100F300080912F028F5F8F7320913002821741F0D2
:100F4000E0912F02F0E0EA5EFD4F958F80932F0233
:100F5000FF91EF919F918F912F910F900FBE0F9066
:100F60001F9018958081F4CF1F920F920FB60F92A9
:100F700011242F933F934F935F936F937F938F939E
:100F80009F93AF93BF93CF93DF93EF93FF938091A2
:100F9000DA01C0910103D0E087FF24C010928500E0
:100FA000109284008091DA018F5F8093DA01809142
:100FB000DA01082E000C990B8C179D0724F4809100
:100FC000DA018C30C4F18091840090918500049600
:100FD00080349C4908F47AC0809184009091850007
:100FE000049676C08091DA01082E000C990B8C17BC
:100FF0009D07C4F6E091DA018E2FEE0F990BFC01EC
:10100000EE0FFF1FE80FF91FE352FD4F808186FFAF
:10101000C9CFE091DA018E2FEE0F990BFC01EE0F94
:10102000FF1FE80FF91FE352FD4F808160E08F73CF
:101030000E94C500B7CF2091840030918500E091D7
:10104000DA018E2FEE0F990BFC01EE0FFF1FE80F58
:10105000F91FE352FD4F81819281820F931F90937C
:10106000890080938800E091DA018E2FEE0F990BB2
:10107000FC01EE0FFF1FE80FF91FE352FD4F8081C7
:1010800086FF11C0E091DA018E2FEE0F990BFC0163
:10109000EE0FFF1FE80FF91FE352FD4F808161E063
:1010A0008F730E94C500FF91EF91DF91CF91BF91A7
:1010B000AF919F918F917F916F915F914F913F91F0
:1010C0002F910F900FBE0F901F90189580E49CE910
:1010D00090938900809388008FEF8093DA01E3CFAB
:1010E000CF93DF93EB0188819981A8EEB1E011964F
:1010F0009C938E932A813B810697EC01E881F981CC
:10110000E851FE4F3183208312961D921D921D924D
:101110001C92159781E290E0948383838EEE91E098
:10112000948B838B1582158ADF91CF910895CF938D
:10113000DF93C8EED1E081E290E09C8F8B8F1D8E13
:101140001E8E1F8E86E090E0A0E0B0E088A399A3F9
:10115000AAA3BBA31CA21DA21EA21FA282E391E010
:10116000998F888F80E288A71AA619A61DA68EEEF1
:1011700091E09CA78BA7AC0160E871E0CE010E94D2
:1011800070088CE891E09983888386E991E0998FD3
:10119000888F1A8619861C861B861E861D86188ACD
:1011A0001F861A8A198A1C8A1B8A8AE391E09F8308
:1011B0008E8386E192E09F8B8E8B88E08D8BDF9112
:1011C000CF910895DB018D919C9111979093B4027A
:1011D0008093B30212962D913C910697DC01ED911C
:1011E000FC91ED54FD4F3183208381E290E09483A4
:1011F000838385EB92E0948B838B1582158A089507
:10120000CF93DF93C3EBD2E081E290E0988F8F8B96
:10121000198E1A8E1B8E86E090E0A0E0B0E08C8FD5
:101220009D8FAE8FBF8F18A219A21AA21BA282E3B4
:1012300091E09D8B8C8B80E28CA31EA21DA219A62F
:1012400085EB92E098A78FA3AC016CE971E0CE0129
:101250000E94E20888EA91E09983888382EB91E01A
:101260009D8B8C8B1E821D8218861F821A86198682
:101270001C861B861E861D86188A1F868AE391E0BF
:101280009B838A8386E192E09B8B8A8B80E1898BAA
:10129000DF91CF910895109219021092180288EEF2
:1012A00093E0A0E0B0E080931A0290931B02A09319
:1012B0001C02B0931D028AEB91E090931702809379
:1012C000160285EC90E0909323028093220284EC36
:1012D00090E0909325028093240280EC90E090931C
:1012E00027028093260281EC90E09093290280935C
:1012F000280282EC90E090932B0280932A0286ECE5
:1013000090E090932D0280932C0210922F02109265
:101310003002109231021092320266E172E083EBE9
:1013200092E00E94000966E172E088EE91E00E947E
:1013300097081092E7011092E60186E192E09093FF
:10134000E5018093E4016DEA70E088E890E00E9496
:10135000AC0A9093E7018093E601809101038C3001
:1013600048F591E0980F909301038093050390E076
:10137000FC01EE0FFF1FE80FF91FE352FD4F88EB52
:101380009BE092838183809101038C30B8F491E0DB
:10139000980F909301038093020390E0FC01EE0FFD
:1013A000FF1FE80FF91FE352FD4F88EB9BE092838C
:1013B000818308958FEF80930503E5CF8FEF8093AE
:1013C00002030895CF93DF9300D000D000D01F9286
:1013D000CDB7DEB7789484B5826084BD84B5816072
:1013E00084BD85B5826085BD85B5816085BD8091F0
:1013F0006E00816080936E00109281008091810068
:10140000826080938100809181008160809381005F
:10141000809180008160809380008091B100846021
:101420008093B1008091B00081608093B000809182
:101430007A00846080937A0080917A008260809341
:101440007A0080917A00816080937A0080917A009E
:10145000806880937A001092C100E0912602F0919A
:10146000270282E08083E0912202F0912302108221
:10147000E0912402F09125028FEC808310922E02DD
:10148000E0912A02F0912B0286E08083E09128020D
:10149000F0912902808180618083E0912802F0919F
:1014A0002902808188608083E0912802F0912902DE
:1014B000808180688083E0912802F09129028081F8
:1014C0008F7D808369E070E082E093E00E94EE020D
:1014D00068E070E085E093E00E94EE0270E060E07A
:1014E00082E093E00E947F02CE0101960E949C065A
:1014F00089819A810E94AF0B80E0E82E80E0F82E6F
:1015000010E000E0B80185E093E00E947F020E94B5
:1015100036010F5F1F4F053B1105A1F704EB10E0EB
:10152000B80185E093E00E947F020E9436010150DD
:101530001109B0F7E114F10419F30E94DC018823CA
:10154000F9F20E940000DCCF88EE91E00E949A043C
:1015500083EB92E00C94E2040F931F93CF93DF93FD
:10156000009759F46115710541F4F0E0E0E0CF0116
:10157000DF91CF911F910F9108958B01EC016EE0E7
:1015800070E081E090E00E94F70AFC01892B69F38A
:1015900080E883830115110571F01387028781E8C4
:1015A00083838091080390910903892B21F4F093A0
:1015B0000903E09308032097D1F2D187C087838184
:1015C0008260838380910A0390910B03892B79F6C3
:1015D000F0930B03E0930A0380910C0390910D03A9
:1015E000892B29F6F0930D03E0930C03C0CF0F93E2
:1015F0001F93CF93DF93869F8001879F100D969F47
:10160000100D1124C8010E94130BEC01009729F062
:10161000A80170E060E00E94380CCE01DF91CF910C
:101620001F910F9108950F931F93CF93DF938230F3
:10163000910510F482E090E0E0911003F091110325
:1016400030E020E0B0E0A0E0309799F421153105BA
:1016500009F44AC0281B390B24303105D8F58A819A
:101660009B816115710589F1FB0193838283FE01E2
:1016700011C0408151810281138148175907E0F060
:101680004817590799F4109761F012960C93129726
:1016900013961C933296CF01DF91CF911F910F913A
:1016A00008950093100310931103F4CF2115310511
:1016B00051F04217530738F0A901DB019A01BD012F
:1016C000DF01F801C1CFEF01F9CF909311038093AF
:1016D0001003CDCFFE01E20FF31F819391932250AF
:1016E000310939832883D7CF20910E0330910F031E
:1016F000232B41F4209102013091030130930F0319
:1017000020930E0320910001309101012115310534
:1017100041F42DB73EB74091040150910501241BBF
:10172000350BE0910E03F0910F03E217F307A0F4DD
:101730002E1B3F0B2817390778F0AC014E5F5F4F27
:101740002417350748F04E0F5F1F50930F03409347
:101750000E03819391939FCFF0E0E0E09CCFCF9375
:10176000DF930097E9F0FC01329713821282A09177
:101770001003B0911103ED0130E020E01097A1F4C7
:1017800020813181820F931F20910E0330910F032E
:101790002817390709F061C0F0930F03E0930E0397
:1017A000DF91CF910895EA01CE17DF07E8F54A816E
:1017B0005B819E0141155105B1F7E901FB83EA8385
:1017C00049915991C40FD51FEC17FD0761F4808131
:1017D00091810296840F951FE90199838883828104
:1017E00093819B838A83F0E0E0E012968D919C9137
:1017F00013970097B9F52D913C911197CD01029661
:10180000820F931F20910E0330910F032817390781
:1018100039F6309751F51092110310921003B093DE
:101820000F03A0930E03BCCFD383C28340815181A9
:10183000840F951FC817D90761F44E5F5F4F8881E9
:101840009981480F591F518340838A819B819383DB
:1018500082832115310509F0B0CFF0931103E09395
:1018600010039ECFFD01DC01C0CF13821282D7CFBF
:10187000DC0101C06D9341505040E0F70895052E02
:1018800097FB1EF400940E94560C57FD07D00E944F
:10189000710C07FC03D04EF40C94560C50954095F7
:1018A000309521953F4F4F4F5F4F0895909580950C
:1018B000709561957F4F8F4F9F4F08950E94930CB5
:1018C000A59F900DB49F900DA49F800D911D112494
:1018D0000895B7FF0C945E0C0E945E0C821B930B64
:1018E0000895A1E21A2EAA1BBB1BFD010DC0AA1F61
:1018F000BB1FEE1FFF1FA217B307E407F50720F079
:10190000A21BB30BE40BF50B661F771F881F991FF3
:101910001A9469F760957095809590959B01AC013C
:10192000BD01CF010895A29FB001B39FC001A39F45
:10193000700D811D1124911DB29F700D811D112408
:10194000911D0895991B79E004C0991F961708F01E
:10195000961B881F7A95C9F780950895EE0FFF1F93
:101960000590F491E02D099410E0CDE5D0E004C09D
:10197000FE010E94AE0C2196CE35D107C9F7F8942E
:02198000FFCF97
:1019820000001203800018000000000000000000A8
:10199200E8FFE8FF00000000000014000000000063
:1019A20000000000ECFFECFF00000000000000005F
:1019B2000000F9040E0700000000B10400076804EB
:1019C2006504FB046204820357041C040304EA0353
:1019D200E803A9038503020000000000C404020713
:1019E200FEFFFEFF0000B204040706000000000034
:1019F2007C049006FAFFFAFF00006A0492068C014A
:101A02000C01160196011800000000009A04EA0673
:101A1200E8FFE8FF0000A704F406A80120012A015C
:101A2200B201140000000000E204D606ECFFECFF55
:101A32000000EF04E00600000000120272019F01A4
:101A42005F02D001AE01C201796573007700737441
:0A1A5200656572006261636B0000BD
:00000001FF
