:100000000C9459000C9481000C9481000C94810094
:100010000C9481000C9481000C9481000C9481005C
:100020000C9481000C9481000C9481000C94CC02FF
:100030000C9481000C9481000C9481000C9481003C
:100040000C942A020C9481000C949A020C94740271
:100050000C9481000C9481000C9481000C9481001C
:100060000C9481000C948100000000002500280001
:100070002B00040404040404040402020202020229
:10008000030303030303010204081020408001025C
:1000900004081020010204081020000000080002DB
:1000A0000100000304070000000000000000060437
:1000B000020711241FBECFEFD8E0DEBFCDBF12E094
:1000C000A0E0B1E0E8EFF1E102C005900D92A637A3
:1000D000B107D9F724E0A6E7B2E001C01D92AA3229
:1000E000B207E1F710E0C8E5D0E004C02197FE01B7
:1000F0000E94C407C735D107C9F70E94E4050C94D4
:10010000EF080C94000090E0FC01E656FF4F2491AC
:10011000FC01EA57FF4F3491FC01EE58FF4FE49188
:10012000EE23C9F0222339F0233001F1A8F4213065
:1001300019F1223029F1F0E0EE0FFF1FE859FF4FCF
:10014000A591B4918FB7F894EC91611126C03095C8
:100150003E233C938FBF08952730A9F02830C9F083
:10016000243049F7809180008F7D03C0809180000A
:100170008F7780938000DFCF84B58F7784BDDBCF0E
:1001800084B58F7DFBCF8091B0008F778093B000D6
:10019000D2CF8091B0008F7DF9CF3E2BDACFAF92D6
:1001A000BF92CF92DF92EF92FF920F931F93CF9364
:1001B000DF936C017B018B01040F151FEB015E01C6
:1001C000AE18BF08C017D10759F06991D601ED915B
:1001D000FC910190F081E02DC6010995892B79F7FA
:1001E000C501DF91CF911F910F91FF90EF90DF90AC
:1001F000CF90BF90AF900895FC01538D448D252F73
:1002000030E0842F90E0821B930B541710F0CF96B0
:10021000089501970895FC01918D828D981761F0E2
:10022000A28DAE0FBF2FB11D5D968C91928D9F5FF9
:100230009F73928F90E008958FEF9FEF0895FC01D8
:10024000918D828D981731F0828DE80FF11D858D8B
:1002500090E008958FEF9FEF0895FC01918D228D1E
:10026000892F90E0805C9F4F821B91098F739927A3
:10027000089580E892E00E942D0121E0892B09F485
:1002800020E0822F089580E090E0892B29F00E94E1
:10029000390181110C9400000895FC01A48DA80F70
:1002A000B92FB11DA35ABF4F2C91848D90E00196B8
:1002B0008F739927848FA689B7892C93A089B189D8
:1002C0008C91837080648C93938D848D981306C079
:1002D0000288F389E02D80818F7D80830895EF92DD
:1002E000FF920F931F93CF93DF93EC0181E0888FF0
:1002F0009B8D8C8D98131AC0E889F989808185FFC0
:1003000015C09FB7F894EE89FF896083E889F98961
:1003100080818370806480839FBF81E090E0DF9163
:10032000CF911F910F91FF90EF900895F62E0B8DB6
:1003300010E00F5F1F4F0F731127E02E8C8D8E1171
:100340000CC00FB607FCFACFE889F989808185FFD8
:10035000F5CFCE010E944D01F1CFEB8DEC0FFD2FBB
:10036000F11DE35AFF4FF0829FB7F8940B8FEA8993
:10037000FB8980818062CFCFCF93DF93EC01888DA2
:100380008823B9F0AA89BB89E889F9898C9185FD10
:1003900003C0808186FD0DC00FB607FCF7CF8C919E
:1003A00085FFF2CF808185FFEDCFCE010E944D0108
:1003B000E9CFDF91CF9108958F929F92AF92BF9234
:1003C0000F931F93CF93DF93CDB7DEB7A1970FB6EF
:1003D000F894DEBF0FBECDBF19A2423008F44AE048
:1003E0008E010F5D1F4F842E912CB12CA12CA501E5
:1003F00094010E94A207E62FB901CA01EA3044F530
:10040000E05DD801EE938D01232B242B252B79F76A
:1004100090E080E0109769F0FD0101900020E9F77D
:100420003197AF014A1B5B0BBD0180E892E00E944F
:10043000CF00A1960FB6F894DEBF0FBECDBFDF91FF
:10044000CF911F910F91BF90AF909F908F90089583
:10045000E95CD7CF1F920F920FB60F9211242F9302
:100460003F938F939F93AF93BF9380917C02909122
:100470007D02A0917E02B0917F0230917B0223E049
:10048000230F2D3758F50196A11DB11D20937B0236
:1004900080937C0290937D02A0937E02B0937F02B2
:1004A0008091770290917802A0917902B0917A02BE
:1004B0000196A11DB11D8093770290937802A093BD
:1004C0007902B0937A02BF91AF919F918F913F9142
:1004D0002F910F900FBE0F901F90189526E8230FB5
:1004E0000296A11DB11DD2CF1F920F920FB60F928F
:1004F00011242F933F934F935F936F937F938F9329
:100500009F93AF93BF93EF93FF9380E892E00E9495
:100510004D01FF91EF91BF91AF919F918F917F918D
:100520006F915F914F913F912F910F900FBE0F9060
:100530001F9018951F920F920FB60F9211242F93B0
:100540008F939F93EF93FF93E0919002F09191022C
:100550008081E0919602F091970282FD1BC090810C
:10056000809199028F5F8F7320919A02821741F0D8
:10057000E0919902F0E0E058FD4F958F8093990249
:10058000FF91EF919F918F912F910F900FBE0F9040
:100590001F9018958081F4CF1F920F920FB60F9283
:1005A00011242F933F934F935F936F937F938F9378
:1005B0009F93AF93BF93CF93DF93EF93FF9380917C
:1005C0007602C0914103D0E087FF24C010928500DD
:1005D00010928400809176028F5F809376028091E2
:1005E0007602082E000C990B8C179D0724F480913D
:1005F00076028C30C4F1809184009091850004963D
:1006000080349C4908F47AC08091840090918500E0
:10061000049676C080917602082E000C990B8C17F8
:100620009D07C4F6E09176028E2FEE0F990BFC0128
:10063000EE0FFF1FE80FF91FE35EFC4F808186FF7E
:10064000C9CFE09176028E2FEE0F990BFC01EE0FD1
:10065000FF1FE80FF91FE35EFC4F808160E08F739E
:100660000E948300B7CF2091840030918500E091F3
:1006700076028E2FEE0F990BFC01EE0FFF1FE80F95
:10068000F91FE35EFC4F81819281820F931F90934B
:10069000890080938800E09176028E2FEE0F990BEF
:1006A000FC01EE0FFF1FE80FF91FE35EFC4F808196
:1006B00086FF11C0E09176028E2FEE0F990BFC01A0
:1006C000EE0FFF1FE80FF91FE35EFC4F808161E032
:1006D0008F730E948300FF91EF91DF91CF91BF91C3
:1006E000AF919F918F917F916F915F914F913F91CA
:1006F0002F910F900FBE0F901F90189580E49CE9EA
:1007000090938900809388008FEF80937602E3CFE7
:10071000CF92DF92EF92FF920F931F93CF93DF93CD
:100720008C017B0188E090E0D80113969C938E9316
:10073000129715961C921E9214970E94CA076C017C
:10074000E80199838883E70109900020E9F7219760
:10075000CE19DF09D1F1C930D10520F1CE010896BB
:10076000F801938382830E94CA07D8018D939C93DA
:10077000F601CF018C199D09D8014D915C9111971B
:1007800014962D913C918217930748F4DA01A80F33
:10079000B91F109711F080818C933196EACFC60172
:1007A0000E946608F80184819581D801ED91FC9141
:1007B0008C179D0738F4E80FF91F309709F0108265
:1007C0000196F3CFF801D583C483F701D8012D91A9
:1007D0003C9140E050E0BA01CE01B0E0A0E0481703
:1007E00059076A077B0748F41191E90119939E01A3
:1007F0004F5F5F4F6F4F7F4FF2CFDF91CF911F91D0
:100800000F91FF90EF90DF90CF9008950F931F937B
:10081000CF93DF931F92CDB7DEB710928302109271
:10082000820288EE93E0A0E0B0E08093840290938F
:100830008502A0938602B09387028AE091E09093AC
:1008400081028093800285EC90E090938D028093EA
:100850008C0284EC90E090938F0280938E0280EC67
:1008600090E0909391028093900281EC90E09093BD
:1008700093028093920282EC90E090939502809391
:10088000940286EC90E090939702809396021092E7
:10089000990210929A0210929B0210929C0210925E
:1008A0001B0410921A0410921C0410921D04109242
:1008B0001E0410921F041092200410922104109222
:1008C0002204109223041092240410922504809193
:1008D00041038C3008F070C191E0980F9093410370
:1008E0008093170490E0FC01EE0FFF1FE80FF91F43
:1008F000E35EFC4F88EB9BE0928381838091410310
:100900008C3008F05DC191E0980F90934103809383
:10091000140490E0FC01EE0FFF1FE80FF91FE35EE7
:10092000FC4F88EB9BE092838183AE014F5F5F4F6A
:1009300068E171E08DE094E00E948803AE014F5FB2
:100940005F4F61E271E086E094E00E948803AE01AF
:100950004F5F5F4F6BE271E08FEF93E00E9488037F
:10096000AE014F5F5F4F67E371E088EF93E00E9455
:100970008803AE014F5F5F4F65E471E081EF93E064
:100980000E948803AE014F5F5F4F64E571E08AEE1D
:1009900093E00E948803AE014F5F5F4F61E671E014
:1009A00083EE93E00E948803AE014F5F5F4F6FE6D6
:1009B00071E08CED93E00E948803AE014F5F5F4FC2
:1009C0006FE771E085ED93E00E948803AE014F5F11
:1009D0005F4F6EE871E08EEC93E00E948803AE01F9
:1009E0004F5F5F4F6EE971E087EC93E00E948803F0
:1009F000AE014F5F5F4F6EEA71E080EC93E00E94C2
:100A00008803AE014F5F5F4F6DEB71E089EB93E0C0
:100A10000E948803AE014F5F5F4F68EC71E082EB8C
:100A200093E00E94880308E010E01093AE03009367
:100A3000AD031092B0031092AF0388E090E00E94E3
:100A4000CA079093AC038093AB03AE014F5F5F4F37
:100A50006DED71E084EA93E00E948803AE014F5F80
:100A60005F4F66EF71E08DE993E00E948803AE016D
:100A70004F5F5F4F61E172E086E993E00E94880377
:100A8000AE014F5F5F4F67E272E08FE893E00E9434
:100A90008803AE014F5F5F4F66E372E088E893E042
:100AA0000E948803AE014F5F5F4F69E272E081E808
:100AB00093E00E948803AE014F5F5F4F6EE272E0E9
:100AC0008AE793E00E948803AE014F5F5F4F61E3C6
:100AD00072E083E793E00E948803AE014F5F5F4FAF
:100AE00068E372E08CE693E00E9488031093680349
:100AF0000093670310926A031092690388E390E001
:100B00000E94CA0790936603809365031093610364
:100B100000936003109263031092620388E390E0F5
:100B20000E94CA0790935F0380935E0310935A0359
:100B30000093590310925C0310925B0388E390E0EA
:100B40000E94CA079093580380935703109353034E
:100B500000935203109255031092540388E090E0E2
:100B60000E94CA07909351038093500310934C0343
:100B700000934B0310924E0310924D0388E090E0D7
:100B80000E94CA0790934A03809349031093450338
:100B900000934403109247031092460388E090E0CC
:100BA0000E94CA0790934303809342030F90DF9102
:100BB000CF911F910F9108958FEF809317049ECED0
:100BC0008FEF80931404B1CE789484B5826084BD95
:100BD00084B5816084BD85B5826085BD85B5816041
:100BE00085BD80916E00816080936E0010928100BF
:100BF000809181008260809381008091810081607A
:100C0000809381008091800081608093800080913A
:100C1000B10084608093B1008091B00081608093C6
:100C2000B00080917A00846080937A0080917A008D
:100C3000826080937A0080917A00816080937A004C
:100C400080917A00806880937A001092C100E091D0
:100C50009002F091910282E08083E0918C02F09109
:100C60008D021082E0918E02F0918F028FEC8083D2
:100C700010929802E0919402F091950286E08083B0
:100C8000E0919202F0919302808180618083E091F3
:100C90009202F0919302808188608083E0919202B9
:100CA000F0919302808180688083E0919202F091BC
:100CB000930280818F7D808384E190E00E94CA0747
:100CC0007C01892B29F086E090E0F70191838083F5
:100CD000FEEFEF16FFEFFF0629F083E090E0F7014B
:100CE000938382838FE390E00E94CA07EC01892BF3
:100CF00001F182E090E09D838C838AE090E09B8309
:100D00008A8384E190E00E94CA07998388830097D0
:100D100031F0F70120813181FC01318320838E3F46
:100D2000FFEF9F0731F0F70122813381FC0133830C
:100D30002283C7010E946608E881F981C080D180C2
:100D40000D2C000CEE08FF084AE0C701B601F7FEC3
:100D50000DC06DE280E892E00E946F016627772760
:100D6000CB016C197D098E099F094AE00E94DC01C4
:100D700042E050E062E772E080E892E00E94CF003B
:100D8000888199810E946608CE010E946608C0E0B1
:100D9000D0E02097F1F30E9439018823D1F30E941B
:100DA0000000F7CFEF92FF920F931F93CF93DF9343
:100DB0007C01D0E0C0E010E000E0F701808191818B
:100DC000248135810217130758F48C0F9D1FFC01F5
:100DD000808191810E9466080F5F1F4F2796EDCF9B
:100DE000DF91CF911F910F91FF90EF900C946608C7
:100DF000FC01808191810C946608FC0180819181C5
:100E00000C946608CF93DF9382E493E00E94F80687
:100E100089E493E00E94F80680E593E00E94F806DA
:100E200087E593E00E94D2068EE593E00E94D20609
:100E300085E693E00E94D2068CE693E00E94FD06D0
:100E400083E793E00E94FD068AE793E00E94FD0697
:100E500081E893E00E94FD0688E893E00E94FD0689
:100E60008FE893E00E94FD0686E993E00E94FD066C
:100E70008DE993E00E94FD0684EA93E00E94FD065E
:100E80008BEA93E00E94FD0682EB93E00E94FD0650
:100E900089EB93E00E94FD0680EC93E00E94FD0642
:100EA00087EC93E00E94FD068EEC93E00E94FD0625
:100EB00085ED93E00E94FD068CED93E00E94FD0617
:100EC00083EE93E00E94FD068AEE93E00E94FD0609
:100ED00081EF93E00E94FD0688EF93E00E94FD06FB
:100EE0008FEF93E00E94FD0686E094E00E94FD06ED
:100EF0008DE094E00E94FD06C0911A04D0911B047D
:100F00002097E9F0E881F9810680F781E02DCE0194
:100F10000995EA89FB8980818F7E8083EA89FB8934
:100F20008081877F8083EA89FB8980818F778083B6
:100F3000EA89FB8980818F7D80838A8D898FDF910B
:100F4000CF910895A1E21A2EAA1BBB1BFD010DC073
:100F5000AA1FBB1FEE1FFF1FA217B307E407F50769
:100F600020F0A21BB30BE40BF50B661F771F881F45
:100F7000991F1A9469F760957095809590959B01DB
:100F8000AC01BD01CF010895EE0FFF1F0590F49154
:100F9000E02D09940F931F93CF93DF938230910537
:100FA00010F482E090E0E0912804F091290430E010
:100FB00020E0B0E0A0E0309799F42115310509F464
:100FC0004AC0281B390B24303105D8F58A819B8112
:100FD0006115710589F1FB0193838283FE0111C0C4
:100FE000408151810281138148175907E0F0481769
:100FF000590799F4109761F012960C931297139673
:101000001C933296CF01DF91CF911F910F910895DC
:101010000093280410932904F4CF2115310551F0D1
:101020004217530738F0A901DB019A01BD01DF0126
:10103000F801C1CFEF01F9CF9093290480932804E0
:10104000CDCFFE01E20FF31F81939193225031091E
:1010500039832883D7CF2091260430912704232B6E
:1010600041F4209102013091030130932704209331
:10107000260420910001309101012115310541F430
:101080002DB73EB74091040150910501241B350B4B
:10109000E0912604F0912704E217F307A0F42E1B39
:1010A0003F0B2817390778F0AC014E5F5F4F2417CC
:1010B000350748F04E0F5F1F5093270440932604D6
:1010C000819391939FCFF0E0E0E09CCFCF93DF93AB
:1010D0000097E9F0FC01329713821282A091280454
:1010E000B0912904ED0130E020E01097A1F42081B7
:1010F0003181820F931F20912604309127042817F5
:10110000390709F061C0F0932704E0932604DF91CA
:10111000CF910895EA01CE17DF07E8F54A815B8198
:101120009E0141155105B1F7E901FB83EA8349911D
:101130005991C40FD51FEC17FD0761F4808191818F
:101140000296840F951FE901998388838281938198
:101150009B838A83F0E0E0E012968D919C91139737
:101160000097B9F52D913C911197CD010296820F10
:10117000931F20912604309127042817390739F648
:10118000309751F51092290410922804B093270447
:10119000A0932604BCCFD383C28340815181840FA6
:1011A000951FC817D90761F44E5F5F4F88819981F9
:1011B000480F591F518340838A819B819383828387
:1011C0002115310509F0B0CFF0932904E0932804EC
:1011D0009ECFFD01DC01C0CF13821282D7CF10E079
:1011E000C8E5D0E004C0FE010E94C4072196C935BD
:0811F000D107C9F7F894FFCF05
:1011F80000002A048000000000006F01CF00FC00FE
:10120800BC012D010B011F014875623A204F4B0AA2
:10121800004875623A204552520A00426F6F74695D
:101228006E672048756200536572766F206D313A9B
:10123800204F4B0A00536572766F206D313A204576
:1012480052520A00536572766F206D323A4F4B0A3C
:1012580000536572766F206D323A4552520A004249
:101268006F6F74696E6720536572766F206D0052D8
:10127800504C69646172206C3A204F4B0A005250FE
:101288004C69646172206C3A204552520A00426FE0
:101298006F74696E672052504C69646172005345DF
:1012A800545550202F2F2F2F2F2F2F0A00426F6FAA
:1012B80074696E67207C200043616C63756C61748F
:1012C800696E6720526F757465207C200053455401
:1012D800555020436F6D706C65746564202F2F2FF7
:1012E8002F2F2F2F0A00426F6F74696E6720436F8C
:1012F8006D706C65746564202F2F2F2F2F2F2F0A88
:1013080000526F75746520466F756E6421202F2F0B
:101318002F2F2F2F2F0A0058002E2E2E0A00210AB9
:10132800005469636B2023003020332E3220352E81
:101338003625332E322030203025352E36203020E9
:1013480030257C3020333020302533302030203099
:10135800253020302030257C333020343020302593
:061368007C000D0A0000EC
:00000001FF
