:100000000C9459000C9481000C9481000C94810094
:100010000C9481000C9481000C9481000C9481005C
:100020000C9481000C9481000C9481000C941905AF
:100030000C9481000C9481000C9481000C9481003C
:100040000C9477040C9481000C94E7040C94C10484
:100050000C9481000C9481000C9481000C9481001C
:100060000C9481000C948100000000002500280001
:100070002B00040404040404040402020202020229
:10008000030303030303010204081020408001025C
:1000900004081020010204081020000000080002DB
:1000A00001000003040700000000000000000F062C
:1000B000580811241FBECFEFD8E0DEBFCDBF12E03D
:1000C000A0E0B1E0EAE3F4E102C005900D92A237AE
:1000D000B107D9F723E0A2E7B2E001C01D92AC3F1F
:1000E000B207E1F710E0C8E5D0E004C02197FE01B7
:1000F0000E94E008C735D107C9F70E9487070C9412
:10010000100A0C940000089590E0FC01E656FF4FA1
:100110002491FC01EA57FF4F3491FC01EE58FF4F48
:10012000E491EE23C9F0222339F0233001F1A8F441
:10013000213019F1223029F1F0E0EE0FFF1FE859CC
:10014000FF4FA591B4918FB7F894EC91611126C03F
:1001500030953E233C938FBF08952730A9F0283077
:10016000C9F0243049F7809180008F7D03C08091D1
:1001700080008F7780938000DFCF84B58F7784BD38
:10018000DBCF84B58F7DFBCF8091B0008F778093DC
:10019000B000D2CF8091B0008F7DF9CF3E2BDACF67
:1001A000AF92BF92CF92DF92EF92FF920F931F9385
:1001B000CF93DF936C017B018B01040F151FEB01C3
:1001C0005E01AE18BF08C017D10759F06991D6017A
:1001D000ED91FC910190F081E02DC6010995892BEC
:1001E00079F7C501DF91CF911F910F91FF90EF90AB
:1001F000DF90CF90BF90AF900895FC01538D448D58
:10020000252F30E0842F90E0821B930B541710F0C1
:10021000CF96089501970895FC01918D828D9817CE
:1002200061F0A28DAE0FBF2FB11D5D968C91928DA6
:100230009F5F9F73928F90E008958FEF9FEF0895D7
:10024000FC01918D828D981731F0828DE80FF11DA0
:10025000858D90E008958FEF9FEF0895FC01918DBB
:10026000228D892F90E0805C9F4F821B91098F73B4
:10027000992708958CE792E00E942E0121E0892BB6
:1002800009F420E0822F089580E090E0892B29F086
:100290000E943A0181110C9400000895FC01A48D84
:1002A000A80FB92FB11DA35ABF4F2C91848D90E098
:1002B00001968F739927848FA689B7892C93A0897B
:1002C000B1898C91837080648C93938D848D981305
:1002D00006C00288F389E02D80818F7D8083089598
:1002E000EF92FF920F931F93CF93DF93EC0181E086
:1002F000888F9B8D8C8D98131AC0E889F98980812D
:1003000085FF15C09FB7F894EE89FF896083E8895F
:10031000F98980818370806480839FBF81E090E051
:10032000DF91CF911F910F91FF90EF900895F62EDE
:100330000B8D10E00F5F1F4F0F731127E02E8C8D78
:100340008E110CC00FB607FCFACFE889F9898081BD
:1003500085FFF5CFCE010E944E01F1CFEB8DEC0F62
:10036000FD2FF11DE35AFF4FF0829FB7F8940B8FDA
:10037000EA89FB8980818062CFCFCF93DF93EC0144
:10038000888D8823B9F0AA89BB89E889F9898C917D
:1003900085FD03C0808186FD0DC00FB607FCF7CF39
:1003A0008C9185FFF2CF808185FFEDCFCE010E9439
:1003B0004E01E9CFDF91CF910895CF92DF92EF9276
:1003C000FF920F931F93FB01DC0100E010E0980106
:1003D0006A01F12CE12C0C151D052E053F0538F4A2
:1003E00061916D930F5F1F4F2F4F3F4FF4CF840FDD
:1003F000951F1F910F91FF90EF90DF90CF90089580
:10040000CF92DF92EF92FF920F931F93CF93DF93E0
:10041000EC018C819D818617970708F045C07A0111
:100420008B012A813B812617370718F5CB010896E7
:1004300028173907F0F4C880D9809B838A830E94EB
:10044000E60899838883F601CF018C199D092C81D8
:100450003D818217930750F4A881B981A80FB91F75
:10046000109711F080818C933196EECFC6010E94D7
:1004700082098C819D818017910758F4E881F98168
:10048000E80FF91F309719F0D7012C9120830196BE
:10049000F2CF1D830C83DF91CF911F910F91FF90BD
:1004A000EF90DF90CF90089568177907A0F77D83CC
:1004B0006C83F1CFFC01808191810C948209EF92D1
:1004C000FF920F931F93CF93DF937C01D0E0C0E0A6
:1004D00010E000E0F70180819181248135810217CD
:1004E000130740F48C0F9D1F0E945A020F5F1F4F8D
:1004F0002796F0CFDF91CF911F910F91FF90EF9052
:100500000C948209EF92FF920F931F93CF93DF9386
:100510001F92CDB7DEB78C017B0188E090E0F80137
:1005200093838283158214820E94E608F8019183E6
:100530008083F701648175811982AE014F5F5F4F3F
:10054000C8010E940002F80144815581F7016081D1
:100550007181F801808191810E94DD010F90DF910E
:10056000CF911F910F91FF90EF900895CF92DF925E
:10057000EF92FF920F931F93CF93DF931F92CDB70C
:10058000DEB78C01FB01E480F580E416F50610F47B
:100590000E940B0AE41AF50A2E153F0508F47901AA
:1005A000FB01C080D180C40ED51E88E090E0F80128
:1005B00093838283158214820E94E608F801918356
:1005C0008083FFEFEF16FF0619F3F60180811816FE
:1005D00084F41982AE014F5F5F4FB701C8010E94DA
:1005E0000002F80144815581B601808191810E9409
:1005F000DD01C8010F90DF91CF911F910F91FF9006
:10060000EF90DF90CF9008956F927F928F929F929C
:10061000AF92BF92CF92DF92EF92FF920F931F9310
:10062000CF93DF93CDB7DEB7A5970FB6F894DEBFB3
:100630000FBECDBF6B0188E090E098A38F8F1AA208
:1006400019A288E390E00E94E6089E8F8D8FD60164
:1006500014962D913C9190E080E08217930759F019
:10066000D601ED91FC91E80FF91F40814C3709F458
:100670008C010196F2CF98012150310950E040E001
:10068000B601FE0131967F01CF010E94B6029801AA
:1006900020953095A8014F5F5F4FB601CE010896B7
:1006A0000E94B60222273327201B310B41E050E085
:1006B000B601CE010F960E94B6028BE090E0998FB2
:1006C000888F83E090E09B8F8A8F8DE490E00E947A
:1006D000E6089F8B8E8B8701D12CC12C8A8D9B8D38
:1006E000C816D906A8F48E899F8998012E193F094A
:1006F000820F931F009731F0AE014C5D5F4FB80140
:100700000E948202FFEFCF1ADF0A095F1F4FE6CF78
:100710002F8D38A12817390790F5CD8CDE8C98A342
:100720008F8F27E0AC01249FC001259F900D1124DD
:100730000E94E6089E8F8D8F8601B12CA12C89A185
:100740009AA1A816B906C0F48D8D9E8D98012C191A
:100750003D09820F931F009731F0AE014C5D5F4F52
:10076000B8010E948202C8010E945A025FEFA51AD6
:10077000B50A095F1F4FE3CFC6010E94820989A114
:100780009AA18A8C9B8C8815990508F44C01D12C70
:10079000C12CB12CA12CA814B90499F16E887F88C2
:1007A0006C0C7D1C0D8D1E8D0C0D1D1D60167106B3
:1007B00009F1D80114968D919C911597892B21F000
:1007C00015961C921E921497F301648175811DA2E7
:1007D000AE014B5D5F4FC8010E940002D301149629
:1007E0004D915C9115976D917C91F801808191817B
:1007F0000E94DD01FFEFAF1ABF0A47E0C40ED11C13
:10080000CACF09A11AA18A8D9B8D0817190728F54F
:1008100087E0809F6001819FD00C11248A8D9B8D81
:1008200008171907D0F48D8D9E8D8C0D9D1D009796
:1008300049F06E897F896C0D7D1DAE014C5D5F4F67
:100840000E94820289A19AA101969AA389A30F5FAF
:100850001F4F57E0C50ED11CE1CF0A8D1B8D89A11A
:100860009AA108171907D8F487E0809F6001819F3B
:10087000D00C1124580189A19AA1A816B90668F4D0
:100880008D8D9E8D8C0D9D1D0E945A028FEFA81A92
:10089000B80A97E0C90ED11CEECF1AA309A3CE0166
:1008A00046960E945F02CE010F960E945A02CE0128
:1008B00008960E945A02C7010E945A02CE014D9624
:1008C0000E945F02A5960FB6F894DEBF0FBECDBFA3
:1008D000DF91CF911F910F91FF90EF90DF90CF901C
:1008E000BF90AF909F908F907F906F9008951F92D0
:1008F0000F920FB60F9211242F933F938F939F93D4
:10090000AF93BF938091780290917902A0917A027F
:10091000B0917B023091770223E0230F2D3758F5F9
:100920000196A11DB11D20937702809378029093C8
:100930007902A0937A02B0937B0280917302909126
:100940007402A0917502B09176020196A11DB11DAD
:100950008093730290937402A0937502B093760211
:10096000BF91AF919F918F913F912F910F900FBEAB
:100970000F901F90189526E8230F0296A11DB11D18
:10098000D2CF1F920F920FB60F9211242F933F9345
:100990004F935F936F937F938F939F93AF93BF9387
:1009A000EF93FF938CE792E00E944E01FF91EF914D
:1009B000BF91AF919F918F917F916F915F914F9177
:1009C0003F912F910F900FBE0F901F9018951F927F
:1009D0000F920FB60F9211242F938F939F93EF9343
:1009E000FF93E0918C02F0918D028081E091920260
:1009F000F091930282FD1BC09081809195028F5FE0
:100A00008F7320919602821741F0E0919502F0E0F9
:100A1000E458FD4F958F80939502FF91EF919F9140
:100A20008F912F910F900FBE0F901F90189580817E
:100A3000F4CF1F920F920FB60F9211242F933F9372
:100A40004F935F936F937F938F939F93AF93BF93D6
:100A5000CF93DF93EF93FF9380917202C0913D0398
:100A6000D0E087FF24C0109285001092840080910E
:100A700072028F5F8093720280917202082E000CC6
:100A8000990B8C179D0724F4809172028C30C4F16D
:100A90008091840090918500049680349C4908F4EC
:100AA0007AC08091840090918500049676C08091F0
:100AB0007202082E000C990B8C179D07C4F6E0916A
:100AC00072028E2FEE0F990BFC01EE0FFF1FE80F45
:100AD000F91FE75EFC4F808186FFC9CFE09172026B
:100AE0008E2FEE0F990BFC01EE0FFF1FE80FF91F81
:100AF000E75EFC4F808160E08F730E948400B7CF77
:100B00002091840030918500E09172028E2FEE0FCB
:100B1000990BFC01EE0FFF1FE80FF91FE75EFC4F7A
:100B200081819281820F931F909389008093880026
:100B3000E09172028E2FEE0F990BFC01EE0FFF1F5A
:100B4000E80FF91FE75EFC4F808186FF11C0E0913E
:100B500072028E2FEE0F990BFC01EE0FFF1FE80FB4
:100B6000F91FE75EFC4F808161E08F730E94840073
:100B7000FF91EF91DF91CF91BF91AF919F918F91B5
:100B80007F916F915F914F913F912F910F900FBE89
:100B90000F901F90189580E49CE9909389008093B2
:100BA00088008FEF80937202E3CFCF92DF92EF92B3
:100BB000FF920F931F93CF93DF931F92CDB7DEB7B2
:100BC0007C016B0188E090E0F701938382831582BA
:100BD00014820E94E608F70191838083F601019058
:100BE0000020E9F731978F010C191D091982AE0118
:100BF0004F5F5F4FB801C7010E940002A801B60114
:100C0000F701808191810E94DD010F90DF91CF91EA
:100C10001F910F91FF90EF90DF90CF900895CF93A9
:100C2000DF931F92CDB7DEB710927F0210927E0243
:100C300088EE93E0A0E0B0E0809380029093810280
:100C4000A0938202B09383028AE091E090937D02A8
:100C500080937C0285EC90E09093890280938802D7
:100C600084EC90E090938B0280938A0280EC90E079
:100C700090938D0280938C0281EC90E090938F0290
:100C800080938E0282EC90E0909391028093900288
:100C900086EC90E0909393028093920210929502DA
:100CA0001092960210929702109298021092ED0301
:100CB0001092EC031092EE031092EF031092F003E7
:100CC0001092F1031092F2031092F3031092F403C6
:100CD0001092F5031092F6031092F70380913D03F2
:100CE0008C3008F00CC191E0980F90933D038093F5
:100CF000E90390E0FC01EE0FFF1FE80FF91FE75E2C
:100D0000FC4F88EB9BE09283818380913D038C3084
:100D100008F0F9C091E0980F90933D038093E603AB
:100D200090E0FC01EE0FFF1FE80FF91FE75EFC4F9C
:100D300088EB9BE092838183AE014F5F5F4F68E158
:100D400071E08FED93E00E94D505AE014F5F5F4FDC
:100D500061E271E088ED93E00E94D505AE014F5F3E
:100D60005F4F6BE271E081ED93E00E94D505AE012B
:100D70004F5F5F4F67E371E08AEC93E00E94D50517
:100D8000AE014F5F5F4F65E471E083EC93E00E943A
:100D9000D505AE014F5F5F4F64E571E08CEB93E0EA
:100DA0000E94D505AE014F5F5F4F61E671E085EBB4
:100DB00093E00E94D505AE014F5F5F4F6FE671E093
:100DC0008EEA93E00E94D505AE014F5F5F4F6FE75B
:100DD00071E087EA93E00E94D505AE014F5F5F4F57
:100DE0006EE871E080EA93E00E94D505AE014F5FA6
:100DF0005F4F6EE971E089E993E00E94D505AE018D
:100E00004F5F5F4F6EEA71E082E993E00E94D50583
:100E1000AE014F5F5F4F6DEB71E08BE893E00E9496
:100E2000D505AE014F5F5F4F68EC71E084E893E059
:100E30000E94D50588E090E09093800380937F0323
:100E400010928203109281030E94E60890937E0321
:100E500080937D03AE014F5F5F4F6DED71E086E7DC
:100E600093E00E94D505AE014F5F5F4F66EF71E0E2
:100E70008FE693E00E94D505AE014F5F5F4F61E1C1
:100E800072E088E693E00E94D505AE014F5F5F4FA8
:100E900067E272E081E693E00E94D505AE014F5F04
:100EA0005F4F66E372E08AE593E00E94D505AE01EC
:100EB0004F5F5F4F69E272E083E593E00E94D505E2
:100EC000AE014F5F5F4F6EE272E08CE493E00E94F0
:100ED000D505AE014F5F5F4F61E372E085E493E0BB
:100EE0000E94D505AE014F5F5F4F68E372E08EE36D
:100EF00093E00E94D5050F90DF91CF9108958FEF79
:100F00008093E90302CF8FEF8093E60315CFCF9351
:100F1000DF93CDB7DEB76E970FB6F894DEBF0FBE86
:100F2000CDBF789484B5826084BD84B5816084BD72
:100F300085B5826085BD85B5816085BD80916E0077
:100F4000816080936E0010928100809181008260A8
:100F500080938100809181008160809381008091E5
:100F600080008160809380008091B10084608093D4
:100F7000B1008091B00081608093B00080917A00D0
:100F8000846080937A0080917A00826080937A00F6
:100F900080917A00816080937A0080917A008068E5
:100FA00080937A001092C100E0918C02F0918D0242
:100FB00082E08083E0918802F09189021082E091C2
:100FC0008A02F0918B028FEC808310929402E09160
:100FD0009002F091910286E08083E0918E02F09180
:100FE0008F02808180618083E0918E02F0918F0278
:100FF000808188608083E0918E02F0918F028081F1
:1010000080688083E0918E02F0918F0280818F7DD5
:101010008083AE01425E5F4F6EE373E0CE010F96B8
:101020000E948202BE01615F7F4FCE0108960E943E
:10103000040368857985AE01435E5F4FCE0101965A
:101040000E948202CE0146960E948300CE01019644
:101050000E945A02CE0108960E945F02CE010F96AE
:101060000E945A0210E000E0F12CE12C8E899F8949
:101070002A8D3B8DE216F30668F4800F911FFC0168
:10108000808191810E948209FFEFEF1AFF0A095FB8
:101090001F4FECCF0E94820900E010E001151105FE
:1010A000E9F30E943A018823C9F30E940000F6CFB9
:1010B000CF93DF938EE393E00E945A0285E493E09E
:1010C0000E945A028CE493E00E945A0283E593E066
:1010D0000E945A028AE593E00E945A0281E693E058
:1010E0000E945A0288E693E00E945A028FE693E03B
:1010F0000E945A0286E793E00E945A028DE793E02D
:101100000E945A0284E893E00E945A028BE893E01E
:101110000E945A0282E993E00E945A0289E993E010
:101120000E945A0280EA93E00E945A0287EA93E002
:101130000E945A028EEA93E00E945A0285EB93E0E5
:101140000E945A028CEB93E00E945A0283EC93E0D7
:101150000E945A028AEC93E00E945A0281ED93E0C9
:101160000E945A0288ED93E00E945A028FED93E0AC
:101170000E945A02C091EC03D091ED032097E9F050
:10118000E881F9810680F781E02DCE010995EA8991
:10119000FB8980818F7E8083EA89FB898081877FBC
:1011A0008083EA89FB8980818F778083EA89FB8944
:1011B00080818F7D80838A8D898FDF91CF91089583
:1011C000EE0FFF1F0590F491E02D09940F931F93EC
:1011D000CF93DF938230910510F482E090E0E091AC
:1011E000FA03F091FB0330E020E0B0E0A0E030979C
:1011F00099F42115310509F44AC0281B390B243014
:101200003105D8F58A819B816115710589F1FB0152
:1012100093838283FE0111C0408151810281138139
:1012200048175907E0F04817590799F4109761F0EB
:1012300012960C93129713961C933296CF01DF915E
:10124000CF911F910F9108950093FA031093FB0320
:10125000F4CF2115310551F04217530738F0A90199
:10126000DB019A01BD01DF01F801C1CFEF01F9CF28
:101270009093FB038093FA03CDCFFE01E20FF31F9F
:10128000819391932250310939832883D7CF2091BC
:10129000F8033091F903232B41F42091020130919E
:1012A00003013093F9032093F8032091000130915A
:1012B00001012115310541F42DB73EB740910401DC
:1012C00050910501241B350BE091F803F091F903CF
:1012D000E217F307A0F42E1B3F0B2817390778F00D
:1012E000AC014E5F5F4F2417350748F04E0F5F1F6C
:1012F0005093F9034093F803819391939FCFF0E0CB
:10130000E0E09CCFCF93DF930097E9F0FC013297A8
:1013100013821282A091FA03B091FB03ED0130E039
:1013200020E01097A1F420813181820F931F20913A
:10133000F8033091F9032817390709F061C0F093D9
:10134000F903E093F803DF91CF910895EA01CE17F6
:10135000DF07E8F54A815B819E0141155105B1F730
:10136000E901FB83EA8349915991C40FD51FEC171A
:10137000FD0761F4808191810296840F951FE90138
:1013800099838883828193819B838A83F0E0E0E064
:1013900012968D919C9113970097B9F52D913C91E0
:1013A0001197CD010296820F931F2091F80330917F
:1013B000F9032817390739F6309751F51092FB03D6
:1013C0001092FA03B093F903A093F803BCCFD38330
:1013D000C28340815181840F951FC817D90761F4DA
:1013E0004E5F5F4F88819981480F591F5183408319
:1013F0008A819B81938382832115310509F0B0CFC7
:10140000F093FB03E093FA039ECFFD01DC01C0CF14
:1014100013821282D7CF81E090E0F8940C94100AE6
:1014200010E0C8E5D0E004C0FE010E94E00821966B
:0A143000C935D107C9F7F894FFCFC2
:10143A000000FC038000000000007001D000FD00E5
:10144A00BD012E010C0120014875623A204F4B0A5A
:10145A00004875623A204552520A00426F6F746919
:10146A006E672048756200536572766F206D313A57
:10147A00204F4B0A00536572766F206D313A204532
:10148A0052520A00536572766F206D323A4F4B0AF8
:10149A0000536572766F206D323A4552520A004205
:1014AA006F6F74696E6720536572766F206D005294
:1014BA00504C69646172206C3A204F4B0A005250BA
:1014CA004C69646172206C3A204552520A00426F9C
:1014DA006F74696E672052504C696461720053459B
:1014EA00545550202F2F2F2F2F2F2F0A00426F6F66
:1014FA0074696E67207C200043616C63756C61744B
:10150A00696E6720526F757465207C2000534554BC
:10151A00555020436F6D706C65746564202F2F2FB2
:10152A002F2F2F2F0A00426F6F74696E6720436F47
:10153A006D706C65746564202F2F2F2F2F2F2F0A43
:10154A0000526F75746520466F756E6421202F2FC7
:10155A002F2F2F2F2F0A0058002E2E2E0A00210A75
:10156A00005469636B2023003020332E3220352E3D
:10157A003625332E322030203025352E36203020A5
:10158A0030257C3020333020302533302030203055
:10159A00253020302030257C33302034302030254F
:0215AA007C00C3
:00000001FF
