:100000000C945E000C9486000C9486000C94860080
:100010000C9486000C9486000C9486000C94860048
:100020000C9486000C9486000C9486000C94340585
:100030000C9486000C9486000C9486000C94860028
:100040000C9492040C9486000C9402050C94DC042D
:100050000C9486000C9486000C9486000C94860008
:100060000C9486000C948600000000080002010039
:100070000003040700000000000000000000000072
:10008000250028002B0000000000240027002A0083
:10009000040404040404040402020202020203032E
:1000A0000303030301020408102040800102040836
:1000B0001020010204081020CB06C40811241FBE22
:1000C000CFEFD8E0DEBFCDBF11E0A0E0B1E0E2EBC2
:1000D000F5E102C005900D92A83CB107D9F723E0E5
:1000E000A8ECB1E001C01D92A030B207E1F710E02A
:1000F000CDE5D0E004C02197FE010E94C60ACC35B0
:10010000D107C9F70E9462070C94CC0A0C94000036
:100110001F93CF93DF93182FC091D201D091D301B9
:100120008A3041F4E881F9810190F081E02D6DE0A1
:10013000CE010995E881F9810190F081E02D612FD0
:10014000CE01099521E030E0019711F430E020E084
:10015000C901DF91CF911F910895CF93DF93C09193
:10016000D201D091D301E881F9810084F185E02D9D
:10017000CE010995892BB9F3E881F9810284F385D1
:10018000E02DCE01DF91CF91099490E0FC01EC5578
:10019000FF4F249180579F4FFC018491882399F051
:1001A00090E0880F991FFC01EA57FF4FA591B49189
:1001B000FC01E458FF4F859194918FB7F894EC912E
:1001C000E22BEC938FBF089590E0FC01E859FF4FBC
:1001D0002491FC01EC55FF4F3491FC01E057FF4F97
:1001E000E491EE23C9F0222339F0233001F1A8F481
:1001F000213019F1223029F1F0E0EE0FFF1FE45811
:10020000FF4FA591B4918FB7F894EC91611126C07E
:1002100030953E233C938FBF08952730A9F02830B6
:10022000C9F0243049F7809180008F7D03C0809110
:1002300080008F7780938000DFCF84B58F7784BD77
:10024000DBCF84B58F7DFBCF8091B0008F7780931B
:10025000B000D2CF8091B0008F7DF9CF3E2BDACFA6
:10026000DC01ED91FC910190F081E02D0994AF92B9
:10027000BF92CF92DF92EF92FF920F931F93CF9393
:10028000DF936C017B018B01040F151FEB015E01F5
:10029000AE18BF08C017D10759F06991D601ED918A
:1002A000FC910190F081E02DC6010995892B79F729
:1002B000C501DF91CF911F910F91FF90EF90DF90DB
:1002C000CF90BF90AF900895FC01538D448D252FA2
:1002D00030E0842F90E0821B930B541710F0CF96E0
:1002E000089501970895FC01918D828D981761F012
:1002F000A28DAE0FBF2FB11D5D968C91928D9F5F29
:100300009F73928F90E008958FEF9FEF0895FC0107
:10031000918D828D981731F0828DE80FF11D858DBA
:1003200090E008958FEF9FEF0895FC01918D228D4D
:10033000892F90E0805C9F4F821B91098F739927D2
:10034000089584E092E00E94950121E0892B09F450
:1003500020E0822F089580E090E0892B29F00E9410
:10036000A10181110C9400000895FC01A48DA80F37
:10037000B92FB11DA35ABF4F2C91848D90E00196E7
:100380008F739927848FA689B7892C93A089B18907
:100390008C91837080648C93938D848D981306C0A8
:1003A0000288F389E02D80818F7D80830895EF920C
:1003B000FF920F931F93CF93DF93EC0181E0888F1F
:1003C0009B8D8C8D98131AC0E889F989808185FFEF
:1003D00015C09FB7F894EE89FF896083E889F98991
:1003E00080818370806480839FBF81E090E0DF9193
:1003F000CF911F910F91FF90EF900895F62E0B8DE6
:1004000010E00F5F1F4F0F731127E02E8C8D8E11A0
:100410000CC00FB607FCFACFE889F989808185FF07
:10042000F5CFCE010E94B501F1CFEB8DEC0FFD2F82
:10043000F11DE35AFF4FF0829FB7F8940B8FEA89C2
:10044000FB8980818062CFCFCF93DF93EC01888DD1
:100450008823B9F0AA89BB89E889F9898C9185FD3F
:1004600003C0808186FD0DC00FB607FCF7CF8C91CD
:1004700085FFF2CF808185FFEDCFCE010E94B501CF
:10048000E9CFDF91CF910895892B79F41092800004
:1004900082E0809381001092850010928400B19ACE
:1004A00080916F00826080936F000895CF93DF93F7
:1004B000EC01E881F9810288F389E02D09958F3FED
:1004C000980731F02D813E812F5F3F4F3E832D8372
:1004D000DF91CF9108958FEF9FEF089560E070E076
:1004E000CB01089590E080E00895FF920F931F9351
:1004F000CF93DF938C01EB016F3F7607B9F0F62EB7
:10050000EAE06E1306C06DE0F801808991890E94CF
:1005100030016F2DF801808991890E943001CE0150
:10052000DF91CF911F910F91FF900895D0E0C0E02F
:10053000F6CF7F928F929F92AF92BF92CF92DF922F
:10054000EF92FF920F931F93CF93DF938C0149019A
:100550005A01EB01C12CD12C7601C814D904EA044C
:10056000FB04B4F479908AE0781206C06DE0F801DB
:10057000808991890E943001672DF80180899189D5
:100580000E943001FFEFCF1ADF0AEF0AFF0AE5CF22
:10059000C501B401DF91CF911F910F91FF90EF90B2
:1005A000DF90CF90BF90AF909F908F907F900895F5
:1005B000CB010895CF93DF93EC0188899989DC0101
:1005C000ED91FC910084F185E02D0995892BA9F32B
:1005D00088899989DC01ED91FC910284F385E02DF5
:1005E000DF91CF910994CF93DF93EC0188899989AA
:1005F000DC01ED91FC910084F185E02D0995892BBA
:10060000A9F388899989DC01ED91FC910484F58531
:10061000E02DDF91CF9109948F929F92AF92BF927C
:10062000CF92DF92EF92FF920F931F93CF93DF93BE
:100630008C0149015A01EB01C12CD12C7601D80162
:1006400050968D919C91DC01ED91FC910284F38593
:10065000E02D09958F3F61F0C814D904EA04FB042A
:100660003CF48993BFEFCB1ADB0AEB0AFB0AE7CF16
:10067000C701B601DF91CF911F910F91FF90EF90CD
:10068000DF90CF90BF90AF909F908F900895DC0146
:1006900050968D919C91DC01ED91FC910084F18547
:1006A000E02D099490E080E0089590E080E00895C6
:1006B00008950895DC01ED91FC9136970190F08149
:1006C000E02DE80FF91F80E791E0918380838AE7AE
:1006D00091E097838683089520E731E0FC01318320
:1006E00020832AE731E0378326830895FB012081A8
:1006F0003181FC0131832083FB01428153812650EB
:100700003109F90120813181820F931FFC0151834E
:10071000408308952CE831E0FC013183208326E9F1
:1007200031E0318F208F60E871E00C947603DC01BA
:10073000ED91FC91369720813181820F931F0C94AB
:100740008A030895DC01ED91FC9136970190F081C8
:10075000E02DE80FF91F8CE591E09183808386E618
:1007600091E09383828308952CE531E0FC0131838D
:10077000208326E631E0338322830895FB01208124
:100780003181FC0131832083FB014281538126505A
:100790003109F90120813181820F931FFC015183BE
:1007A0004083089528EA31E0FC013183208322EB65
:1007B00031E0358B248B6CE971E00C94BE03DC01D5
:1007C000ED91FC91369720813181820F931F0C941B
:1007D000D203089508954F925F926F927F92BF92D5
:1007E000CF92DF92EF92FF920F931F93CF93DF93FD
:1007F000EC0129013A018B01C12CD12C7601C414E2
:10080000D504E604F7040CF03FC0F801B1908F0165
:100810008F8580FF0BC0E881F9810084F185E02D90
:1008200020E144E070E060E0CE010995EB85FC85B5
:100830008D859E85E817F90760F4B0828B859C85CD
:1008400001969C878B872FEFC21AD20AE20AF20A1E
:10085000D6CF6B2D70E0E881F981028CF38DE02D0D
:10086000CE010995019679F7C701B601DF91CF91C5
:100870001F910F91FF90EF90DF90CF90BF907F90EE
:100880006F905F904F90089573016201EDCF90E0FB
:1008900080E008950C94CF09CF93DF93EC010E9480
:1008A000D203CE01DF91CF910C94CF09DC01ED9101
:1008B000FC91369720813181820F931F0C944C0458
:1008C000CF93DF93EC010E948A03CE01DF91CF9199
:1008D0000C94CF09DC01ED91FC9136972081318198
:1008E000820F931F0C9460040C94CF090C94CF09D1
:1008F000DC01ED91FC91369720813181820F931FAD
:100900000C9476040C94CF090C94CF09DC01ED9182
:10091000FC91369720813181820F931F0C948404BF
:100920000C94CF091F920F920FB60F9211242F93A0
:100930003F938F939F93AF93BF938091CE019091FC
:10094000CF01A091D001B091D1013091CD0123E030
:10095000230F2D3758F50196A11DB11D2093CD0110
:100960008093CE019093CF01A093D001B093D10199
:100970008091C9019091CA01A091CB01B091CC01A5
:100980000196A11DB11D8093C9019093CA01A09346
:10099000CB01B093CC01BF91AF919F918F913F91CB
:1009A0002F910F900FBE0F901F90189526E8230FE0
:1009B0000296A11DB11DD2CF1F920F920FB60F92BA
:1009C00011242F933F934F935F936F937F938F9354
:1009D0009F93AF93BF93EF93FF9384E092E00E94C5
:1009E000B501FF91EF91BF91AF919F918F917F9151
:1009F0006F915F914F913F912F910F900FBE0F908C
:100A00001F9018951F920F920FB60F9211242F93DB
:100A10008F939F93EF93FF93E0911402F09115024F
:100A20008081E0911A02F0911B0282FD1BC090812F
:100A300080911D028F5F8F7320911E02821741F0FB
:100A4000E0911D02F0E0EC5FFD4F958F80931D0259
:100A5000FF91EF919F918F912F910F900FBE0F906B
:100A60001F9018958081F4CF1F920F920FB60F92AE
:100A700011242F933F934F935F936F937F938F93A3
:100A80009F93AF93BF93CF93DF93EF93FF938091A7
:100A9000C801C091EF02D0E087FF24C0109285000A
:100AA000109284008091C8018F5F8093C80180916B
:100AB000C801082E000C990B8C179D0724F4809117
:100AC000C8018C30C4F18091840090918500049617
:100AD00080349C4908F47AC080918400909185000C
:100AE000049676C08091C801082E000C990B8C17D3
:100AF0009D07C4F6E091C8018E2FEE0F990BFC0103
:100B0000EE0FFF1FE80FF91FE553FD4F808186FFB1
:100B1000C9CFE091C8018E2FEE0F990BFC01EE0FAB
:100B2000FF1FE80FF91FE553FD4F808160E08F73D1
:100B30000E94E400B7CF2091840030918500E091BD
:100B4000C8018E2FEE0F990BFC01EE0FFF1FE80F6F
:100B5000F91FE553FD4F81819281820F931F90937E
:100B6000890080938800E091C8018E2FEE0F990BC9
:100B7000FC01EE0FFF1FE80FF91FE553FD4F8081C9
:100B800086FF11C0E091C8018E2FEE0F990BFC017A
:100B9000EE0FFF1FE80FF91FE553FD4F808161E065
:100BA0008F730E94E400FF91EF91DF91CF91BF918D
:100BB000AF919F918F917F916F915F914F913F91F5
:100BC0002F910F900FBE0F901F90189580E49CE915
:100BD00090938900809388008FEF8093C801E3CFC2
:100BE000CF93DF93EB0188819981A6EDB1E0119657
:100BF0009C938E932A813B810697EC01E881F981D1
:100C0000EA52FE4F3183208312961D921D921D924F
:100C10001C92159781E290E0948383838CED91E0A0
:100C2000948B838B1582158ADF91CF910895CF9392
:100C3000DF93C6EDD1E081E290E09C8F8B8F1D8E1B
:100C40001E8E1F8E86E090E0A0E0B0E088A399A3FE
:100C5000AAA3BBA31CA21DA21EA21FA282E391E015
:100C6000998F888F80E288A71AA619A61DA68CEDF9
:100C700091E09CA78BA7AC0160E871E0CE010E94D7
:100C8000F0058CE891E09983888386E991E0998F5B
:100C9000888F1A8619861C861B861E861D86188AD2
:100CA0001F861A8A198A1C8A1B8A8AE391E09F830D
:100CB0008E8384E092E09F8B8E8B88E08D8BDF911A
:100CC000CF910895DB018D919C9111979093A20291
:100CD0008093A10212962D913C910697DC01ED9133
:100CE000FC91EF55FD4F3183208381E290E09483A6
:100CF000838383EA92E0948B838B1582158A08950F
:100D0000CF93DF93C1EAD2E081E290E0988F8F8B9E
:100D1000198E1A8E1B8E86E090E0A0E0B0E08C8FDA
:100D20009D8FAE8FBF8F18A219A21AA21BA282E3B9
:100D300091E09D8B8C8B80E28CA31EA21DA219A634
:100D400083EA92E098A78FA3AC016CE971E0CE0131
:100D50000E94620688EA91E09983888382EB91E0A1
:100D60009D8B8C8B1E821D8218861F821A86198687
:100D70001C861B861E861D86188A1F868AE391E0C4
:100D80009B838A8384E092E09B8B8A8B80E1898BB2
:100D9000DF91CF910895109207021092060288EE1B
:100DA00093E0A0E0B0E08093080290930902A09342
:100DB0000A02B0930B028AEB91E0909305028093B4
:100DC000040285EC90E0909311028093100284EC71
:100DD00090E0909313028093120280EC90E0909345
:100DE00015028093140281EC90E090931702809397
:100DF000160282EC90E0909319028093180286EC20
:100E000090E090931B0280931A0210921D021092A0
:100E10001E0210921F021092200264E072E081EA2A
:100E200092E00E94800664E072E086ED91E00E940C
:100E300017061092D5011092D40184E092E09093AD
:100E4000D3018093D2016DEA70E088E890E00E94BF
:100E5000CC089093D5018093D4018091EF028C301F
:100E600048F591E0980F9093EF028093F30290E0A1
:100E7000FC01EE0FFF1FE80FF91FE553FD4F88EB54
:100E80009BE0928381838091EF028C30B8F491E0F3
:100E9000980F9093EF028093F00290E0FC01EE0F28
:100EA000FF1FE80FF91FE553FD4F88EB9BE092838E
:100EB000818308958FEF8093F302E5CF8FEF8093C6
:100EC000F0020895789484B5826084BD84B5816011
:100ED00084BD85B5826085BD85B5816085BD809105
:100EE0006E00816080936E0010928100809181007D
:100EF0008260809381008091810081608093810075
:100F0000809180008160809380008091B100846036
:100F10008093B1008091B00081608093B000809197
:100F20007A00846080937A0080917A008260809356
:100F30007A0080917A00816080937A0080917A00B3
:100F4000806880937A001092C1008091F20208E5D7
:100F500012E0081B110987FD1395000F111F000FE8
:100F6000111F8091F102C8E8D0E0C81BD10987FDAC
:100F7000D395CC0FDD1FCC0FDD1F6E010D2E000CA5
:100F8000EE08FF089801012E000C440B550B2C199C
:100F90003D094E095F09A6E5B0E00E947E0A24EBF8
:100FA00030E040E050E00E945F0AC20ED31EE41E13
:100FB000F51EE091F002EC30C8F4CC16DD062CF002
:100FC000E801C016D1060CF4E6012297CC0FDD1F14
:100FD0002FB7F8948E2F90E0FC01EE0FFF1FE80F63
:100FE000F91FE553FD4FD283C1832FBFE091140257
:100FF000F091150282E08083E0911002F0911102DD
:101000001082E0911202F09113028FEC8083109213
:101010001C02E0911802F091190286E08083E091B1
:101020001602F0911702808180618083E0911602A0
:10103000F0911702808188608083E0911602F09120
:101040001702808180688083E0911602F091170278
:1010500080818F7D80838091F0028C3008F042C0C7
:1010600089E00E94C5008091F002282F30E0F9014C
:10107000EE0FFF1FE20FF31FE553FD4F9081907CB1
:10108000996090831092F1021092F2022CE0622F8C
:101090000E94BA0A90E0829FB001112430E020E063
:1010A000AB01420F531FFA01EE0FFF1FE40FF51FB4
:1010B000E553FD4F408146FD07C02F5F3F4F2C3069
:1010C000310571F70E944402E091F0028E2F90E00A
:1010D000FC01EE0FFF1FE80FF91FE553FD4F808164
:1010E000806480838091F3028C3008F042C088E0F5
:1010F0000E94C5008091F302282F30E0F901EE0F25
:10110000FF1FE20FF31FE553FD4F9081907C986025
:1011100090831092F4021092F5022CE0622F0E944C
:10112000BA0A90E0829FB001112430E020E0AB01C8
:10113000420F531FFA01EE0FFF1FE40FF51FE55397
:10114000FD4F408146FD07C02F5F3F4F2C303105DA
:1011500071F70E944402E091F3028E2F90E0FC01AF
:10116000EE0FFF1FE80FF91FE553FD4F80818064EC
:101170008083C0E0D0E02097F1F30E94A101882392
:10118000D1F30E940000F7CF86ED91E00E948A0320
:1011900081EA92E00C94D2030F931F93CF93DF93D5
:1011A000009759F46115710541F4F0E0E0E0CF01DA
:1011B000DF91CF911F910F9108958B01EC016EE0AB
:1011C00070E081E090E00E941709FC01892B69F32F
:1011D00080E883830115110571F01387028781E888
:1011E00083838091F6029091F702892B21F4F0938A
:1011F000F702E093F6022097D1F2D187C08783816E
:10120000826083838091F8029091F902892B79F6AC
:10121000F093F902E093F8028091FA029091FB02B8
:10122000892B29F6F093FB02E093FA02C0CF0F93CB
:101230001F93CF93DF93869F8001879F100D969F0A
:10124000100D1124C8010E943309EC01009729F008
:10125000A80170E060E00E94580ACE01DF91CF91B2
:101260001F910F9108950F931F93CF93DF938230B7
:10127000910510F482E090E0E091FE02F091FF020F
:1012800030E020E0B0E0A0E0309799F4211531057E
:1012900009F44AC0281B390B24303105D8F58A815E
:1012A0009B816115710589F1FB0193838283FE01A6
:1012B00011C0408151810281138148175907E0F024
:1012C0004817590799F4109761F012960C931297EA
:1012D00013961C933296CF01DF91CF911F910F91FE
:1012E00008950093FE021093FF02F4CF21153105FB
:1012F00051F04217530738F0A901DB019A01BD01F3
:10130000DF01F801C1CFEF01F9CF9093FF02809385
:10131000FE02CDCFFE01E20FF31F81939193225085
:10132000310939832883D7CF2091FC023091FD0207
:10133000232B41F420910201309103013093FD02EF
:101340002093FC022091000130910101211531050B
:1013500041F42DB73EB74091040150910501241B83
:10136000350BE091FC02F091FD02E217F307A0F4C7
:101370002E1B3F0B2817390778F0AC014E5F5F4FEB
:101380002417350748F04E0F5F1F5093FD0240931E
:10139000FC02819391939FCFF0E0E0E09CCFCF934C
:1013A000DF930097E9F0FC01329713821282A0913B
:1013B000FE02B091FF02ED0130E020E01097A1F4B1
:1013C00020813181820F931F2091FC023091FD0218
:1013D0002817390709F061C0F093FD02E093FC0281
:1013E000DF91CF910895EA01CE17DF07E8F54A8132
:1013F0005B819E0141155105B1F7E901FB83EA8349
:1014000049915991C40FD51FEC17FD0761F48081F4
:1014100091810296840F951FE901998388838281C7
:1014200093819B838A83F0E0E0E012968D919C91FA
:1014300013970097B9F52D913C911197CD01029624
:10144000820F931F2091FC023091FD02281739076B
:1014500039F6309751F51092FF021092FE02B093C8
:10146000FD02A093FC02BCCFD383C2834081518193
:10147000840F951FC817D90761F44E5F5F4F8881AD
:101480009981480F591F518340838A819B8193839F
:1014900082832115310509F0B0CFF093FF02E0936C
:1014A000FE029ECFFD01DC01C0CF13821282D7CF96
:1014B000DC0101C06D9341505040E0F70895052EC6
:1014C00097FB1EF400940E94760A57FD07D00E94F5
:1014D000890A07FC03D04EF40C94760A5095409587
:1014E000309521953F4F4F4F5F4F089590958095D0
:1014F000709561957F4F8F4F9F4F08950E94AB0A63
:10150000A59F900DB49F900DA49F800D911D112457
:101510000895A1E21A2EAA1BBB1BFD010DC0AA1F34
:10152000BB1FEE1FFF1FA217B307E407F50720F04C
:10153000A21BB30BE40BF50B661F771F881F991FC7
:101540001A9469F760957095809590959B01AC0110
:10155000BD01CF010895A29FB001B39FC001A39F19
:10156000700D811D1124911DB29F700D811D1124DC
:10157000911D0895991B79E004C0991F961708F0F2
:10158000961B881F7A95C9F780950895EE0FFF1F67
:101590000590F491E02D099410E0CDE5D0E004C071
:1015A000FE010E94C60A2196CE35D107C9F7F894EC
:0215B000FFCF6B
:1015B200000000038000180000000000000000008E
:1015C200E8FFE8FF00000000000014000000000037
:1015D20000000000ECFFECFF000000000000000033
:1015E2000000E903900400000000A10382045803F4
:1015F200550347045203720247030C03F302DA0253
:10160200D80299027502020000000000B4038404AB
:10161200FEFFFEFF0000A203860406000000000099
:101622006C037604FAFFFAFF00005A0378048C0177
:101632000C01160196011800000000008A036004E4
:10164200E8FFE8FF000097036A04A80120012A01CD
:10165200B201140000000000D2034C04ECFFECFFC6
:101662000000DF03560400000000D70137016401C7
:081672002402950173018701B8
:00000001FF
