:100000000C9436000C945E000C945E000C945E0020
:100010000C945E000C945E000C945E000C945E00E8
:100020000C945E000C945E000C945E000C945E00D8
:100030000C945E000C945E000C945E000C945E00C8
:100040000C9444040C945E000C94B4040C948E0440
:100050000C945E000C945E000C945E000C945E00A8
:100060000C945E000C945E00C105120811241FBEA2
:10007000CFEFD8E0DEBFCDBF11E0A0E0B1E0EAE411
:10008000F9E102C005900D92A83EB107D9F722E030
:10009000A8EEB1E001C01D92A43FB207E1F710E065
:1000A000C5E3D0E004C02197FE010E94AD09C4332E
:1000B000D107C9F70E9410060C94980C0C9400000C
:1000C0001F93CF93DF93182FC091F101D091F201CC
:1000D0008A3041F4E881F9810190F081E02D6DE0F2
:1000E000CE010995E881F9810190F081E02D612F21
:1000F000CE01099521E030E0019711F430E020E0D5
:10010000C901DF91CF911F910895CF93DF93C091E3
:10011000F101D091F201E881F9810084F185E02DAF
:10012000CE010995892BB9F3E881F9810284F38521
:10013000E02DCE01DF91CF910994DC01ED91FC918E
:100140000190F081E02D0994AF92BF92CF92DF929F
:10015000EF92FF920F931F93CF93DF936C017B017C
:100160008B01040F151FEB015E01AE18BF08C0170D
:10017000D10759F06991D601ED91FC910190F08180
:10018000E02DC6010995892B79F7C501DF91CF9143
:100190001F910F91FF90EF90DF90CF90BF90AF90A5
:1001A0000895FC01538D448D252F30E0842F90E07D
:1001B000821B930B541710F0CF9608950197089562
:1001C000FC01918D828D981761F0A28DAE0FBF2F2B
:1001D000B11D5D968C91928D9F5F9F73928F90E081
:1001E00008958FEF9FEF0895FC01918D828D9817F0
:1001F00031F0828DE80FF11D858D90E008958FEF2D
:100200009FEF0895FC01918D228D892F90E0805CF5
:100210009F4F821B91098F739927089583E292E083
:100220000E94020121E0892B09F420E0822F089529
:1002300080E090E0892B29F00E940E0181110C943E
:1002400000000895FC01A48DA80FB92FB11DA35A79
:10025000BF4F2C91848D90E001968F739927848FE6
:10026000A689B7892C93A089B1898C918370806409
:100270008C93938D848D981306C00288F389E02DAA
:1002800080818F7D80830895EF92FF920F931F935B
:10029000CF93DF93EC0181E0888F9B8D8C8D981339
:1002A0001AC0E889F989808185FF15C09FB7F89445
:1002B000EE89FF896083E889F98980818370806491
:1002C00080839FBF81E090E0DF91CF911F910F91DC
:1002D000FF90EF900895F62E0B8D10E00F5F1F4FEB
:1002E0000F731127E02E8C8D8E110CC00FB607FCFA
:1002F000FACFE889F989808185FFF5CFCE010E9488
:100300002201F1CFEB8DEC0FFD2FF11DE35AFF4FD2
:10031000F0829FB7F8940B8FEA89FB898081806215
:10032000CFCFCF93DF93EC01888D8823B9F0AA89D2
:10033000BB89E889F9898C9185FD03C0808186FDA0
:100340000DC00FB607FCF7CF8C9185FFF2CF8081EF
:1003500085FFEDCFCE010E942201E9CFDF91CF9141
:100360000895CF93DF93EC01E881F9810288F38946
:10037000E02D09958F3F980731F02D813E812F5F49
:100380003F4F3E832D83DF91CF9108958FEF9FEFF5
:10039000089560E070E0CB01089590E080E008955A
:1003A000FF920F931F93CF93DF938C01EB016F3F6D
:1003B0007607B9F0F62EEAE06E1306C06DE0F8019C
:1003C000808991890E949D006F2DF8018089918913
:1003D0000E949D00CE01DF91CF911F910F91FF9060
:1003E0000895D0E0C0E0F6CF7F928F929F92AF92B7
:1003F000BF92CF92DF92EF92FF920F931F93CF9312
:10040000DF938C0149015A01EB01C12CD12C7601FB
:10041000C814D904EA04FB04B4F479908AE0781291
:1004200006C06DE0F801808991890E949D00672DCA
:10043000F801808991890E949D00FFEFCF1ADF0AA1
:10044000EF0AFF0AE5CFC501B401DF91CF911F91FB
:100450000F91FF90EF90DF90CF90BF90AF909F9063
:100460008F907F900895CB010895CF93DF93EC0197
:1004700088899989DC01ED91FC910084F185E02D5A
:100480000995892BA9F388899989DC01ED91FC9163
:100490000284F385E02DDF91CF910994CF93DF9310
:1004A000EC0188899989DC01ED91FC910084F1854A
:1004B000E02D0995892BA9F388899989DC01ED91B3
:1004C000FC910484F585E02DDF91CF9109948F9202
:1004D0009F92AF92BF92CF92DF92EF92FF920F93D3
:1004E0001F93CF93DF938C0149015A01EB01C12C7B
:1004F000D12C7601D80150968D919C91DC01ED9123
:10050000FC910284F385E02D09958F3F61F0C814BA
:10051000D904EA04FB043CF48993BFEFCB1ADB0A4D
:10052000EB0AFB0AE7CFC701B601DF91CF911F911C
:100530000F91FF90EF90DF90CF90BF90AF909F9082
:100540008F900895DC0150968D919C91DC01ED9186
:10055000FC910084F185E02D099490E080E00895FD
:1005600090E080E0089508950895DC01ED91FC91FC
:1005700036970190F081E02DE80FF91F80E791E0B8
:10058000918380838AE791E097838683089520E7AB
:1005900031E0FC01318320832AE731E03783268371
:1005A0000895FB0120813181FC0131832083FB010F
:1005B0004281538126503109F90120813181820F16
:1005C000931FFC015183408308952CE831E0FC0126
:1005D0003183208326E931E0318F208F60E871E09C
:1005E0000C94D102DC01ED91FC9136972081318190
:1005F000820F931F0C94E5020895DC01ED91FC91AC
:1006000036970190F081E02DE80FF91F8CE591E01D
:100610009183808386E691E09383828308952CE51D
:1006200031E0FC013183208326E631E033832283ED
:100630000895FB0120813181FC0131832083FB017E
:100640004281538126503109F90120813181820F85
:10065000931FFC0151834083089528EA31E0FC0197
:100660003183208322EB31E0358B248B6CE971E000
:100670000C941903DC01ED91FC91369720813181B6
:10068000820F931F0C942D030895089590E080E04D
:1006900008951F93CF93DF93EC01162F8F8580FF72
:1006A0000BC0E881F9810084F185E02D20E144E070
:1006B00070E060E0CE010995EB85FC85812F90E02C
:1006C0002D853E85E217F30758F410832B853C8572
:1006D0002F5F3F4F3C872B87DF91CF911F9108956C
:1006E000E881F981028CF38DE02DBC01CE01DF9110
:1006F000CF911F910994E091C002F091C102369709
:100700000190F081E02DE054FD4F682F838994899A
:100710000E944903019689F4E091C002F091C10260
:1007200036970190F081E02DE054FD4F85812389BB
:100730003489232B29F08260858380EC92E0089530
:100740008360FACF8F929F92AF92BF92CF92DF9247
:10075000EF92FF920F931F93CF93DF938C01490188
:100760005A01EB01C12CD12C7601C814D904EA043A
:10077000FB0464F46991C8010E944903019641F0A9
:100780008FEFC81AD80AE80AF80AEFCF750164019A
:10079000C701B601DF91CF911F910F91FF90EF90AC
:1007A000DF90CF90BF90AF909F908F900895CF93A0
:1007B000DF93EC01E881F98136970190F081E02D1B
:1007C000E80FF91F83899489DC01ED91FC91048481
:1007D000F585E02D0995019659F4E881F981369760
:1007E0000190F081E02DEC0FFD1F858181608583F4
:1007F000CE01DF91CF910895CF93DF93EC010E945A
:100800002D03CE01DF91CF910C941D09DC01ED91F8
:10081000FC91369720813181820F931F0C94FC0349
:10082000CF93DF93EC010E94E502CE01DF91CF91DF
:100830000C941D09DC01ED91FC91369720813181EA
:10084000820F931F0C9410040C941D090C941D0925
:10085000DC01ED91FC91369720813181820F931F4D
:100860000C9426040C941D090C941D09DC01ED91D7
:10087000FC91369720813181820F931F0C943404B0
:100880000C941D090C941D091F920F920FB60F9224
:1008900011242F933F938F939F93AF93BF93809196
:1008A000ED019091EE01A091EF01B091F001309136
:1008B000EC0123E0230F2D3758F50196A11DB11D42
:1008C0002093EC018093ED019093EE01A093EF0152
:1008D000B093F0018091E8019091E901A091EA01C3
:1008E000B091EB010196A11DB11D8093E801909399
:1008F000E901A093EA01B093EB01BF91AF919F9101
:100900008F913F912F910F900FBE0F901F901895D0
:1009100026E8230F0296A11DB11DD2CF1F920F9280
:100920000FB60F9211242F933F934F935F936F93C2
:100930007F938F939F93AF93BF93EF93FF9383E244
:1009400092E00E942201FF91EF91BF91AF919F91A0
:100950008F917F916F915F914F913F912F910F9068
:100960000FBE0F901F9018951F920F920FB60F9207
:1009700011242F938F939F93EF93FF93E091330272
:10098000F09134028081E0913902F0913A0282FDC7
:100990001BC0908180913C028F5F8F7320913D023C
:1009A000821741F0E0913C02F0E0ED5DFD4F958F44
:1009B00080933C02FF91EF919F918F912F910F9027
:1009C0000FBE0F901F9018958081F4CFCF93DF93C7
:1009D000EB0188819981A5EFB1E011969C938E93EC
:1009E0002A813B810697EC01E881F981EB50FE4FAB
:1009F0003183208312961D921D921D921C92159791
:100A000081E290E0948383838BEF91E0948B838BDE
:100A10001582158ADF91CF910895CF93DF93C5EFAB
:100A2000D1E081E290E09C8F8B8F1D8E1E8E1F8EF9
:100A300086E090E0A0E0B0E088A399A3AAA3BBA3BE
:100A40001CA21DA21EA21FA282E391E0998F888F93
:100A500080E288A71AA619A61DA68BEF91E09CA795
:100A60008BA7AC0160E871E0CE010E94E6048CE83F
:100A700091E09983888386E991E0998F888F1A861F
:100A800019861C861B861E861D86188A1F861A8A52
:100A9000198A1C8A1B8A8AE391E09F838E8383E2F2
:100AA00092E09F8B8E8B88E08D8BDF91CF910895A4
:100AB000DB018D919C9111979093C1028093C002AC
:100AC00012962D913C910697DC01ED91FC91E0543A
:100AD000FD4F3183208381E290E09483838382EC15
:100AE00092E0948B838B1582158A0895CF93DF93C0
:100AF000C0ECD2E081E290E0988F8F8B198E1A8E35
:100B00001B8E86E090E0A0E0B0E08C8F9D8FAE8FD2
:100B1000BF8F18A219A21AA21BA282E391E09D8B9B
:100B20008C8B80E28CA31EA21DA219A682EC92E0FF
:100B300098A78FA3AC016CE971E0CE010E94580523
:100B400088EA91E09983888382EB91E09D8B8C8B7E
:100B50001E821D8218861F821A8619861C861B8695
:100B60001E861D86188A1F868AE391E09B838A83EE
:100B700083E292E09B8B8A8B80E1898BDF91CF911E
:100B800008950F931F93CF93DF93C3E2D2E01B82AC
:100B90001A8288EE93E0A0E0B0E08C839D83AE8360
:100BA000BF838AEB91E09983888385EC90E09D87F1
:100BB0008C8784EC90E09F878E8780EC90E0998B07
:100BC000888B81EC90E09B8B8A8B82EC90E09D8BF4
:100BD0008C8B86EC90E09F8B8E8B198E1A8E1B8EE1
:100BE0001C8EBE0180EC92E00E947605BE0185EF6E
:100BF00091E00E940D0501EF11E0F80113821282CD
:100C0000D183C08365E870E080E690E00E941A0816
:100C1000F80193838283DF91CF911F910F91089503
:100C2000CF93DF93CDB7DEB766970FB6F894DEBFEC
:100C30000FBECDBF789484B5826084BD84B58160D9
:100C400084BD85B5826085BD85B5816085BD809197
:100C50006E00816080936E0010928100809181000F
:100C60008260809381008091810081608093810007
:100C7000809180008160809380008091B1008460C9
:100C80008093B1008091B00081608093B00080912A
:100C90007A00846080937A0080917A0082608093E9
:100CA0007A0080917A00816080937A0080917A0046
:100CB000806880937A001092C100E0913302F09135
:100CC000340282E08083E0912F02F09130021082A2
:100CD000E0913102F09132028FEC808310923B025E
:100CE000E0913702F091380286E08083E09135028E
:100CF000F0913602808180618083E0913502F0912D
:100D00003602808188608083E0913502F09136025E
:100D1000808180688083E0913502F0913602808185
:100D20008F7D808384E190E00E9481087C01892B83
:100D300029F083E090E0D7018D939C93BEEFEB16F2
:100D4000BFEFFB0629F083E090E0F70193838283F5
:100D50008FE390E00E9481088C01892B39F182E0B9
:100D600090E0D80115969C938E9314978AE090E0BA
:100D700013969C938E93129784E190E00E948108D1
:100D8000F80191838083009731F0D7012D913C9138
:100D9000FC01318320838E3FFFEF9F0739F0D7019D
:100DA00012962D913C91FC0133832283C7010E944E
:100DB0001D09D8010D90BC91A02DBE8BAD8BED907F
:100DC000FC90E091C002F091C10236970190F08151
:100DD000E02DE054FD4F81899289009711F00E9427
:100DE000D703A701FF0C660B770BE091C002F091CF
:100DF000C10236970190F081E02DE054FD4F8381D0
:100E0000948185FDD1C086FFB8C092FFD0C08CEC24
:100E100091E07F936F935F934F939F938F931F9274
:100E200084E18F93FE0131961F01FF93EF930E949F
:100E3000B3092C01990F66087708E091C002F09180
:100E4000C10236970190F081E02DE054FD4FC4843B
:100E5000D584E684F784C418D508E608F7088381AA
:100E600094818E7099270FB6F894DEBF0FBECDBF68
:100E70000497E9F446015701E091C002F091C102E4
:100E800036970190F081E02DE054FD4F18141904BD
:100E90001A041B040CF491C0D701C601F7FE03C06D
:100EA00080E090E0DC01C81AD90AEA0AFB0AE09166
:100EB000C002F091C10236970190F081E02DE0541C
:100EC000FD4FA388B488D5011F968C911F9780FF92
:100ED0000BC0ED91FC910084F185E02D20E144E010
:100EE00070E060E0C5010995D501ED91FC91008CA1
:100EF000F18DE02DA3019201B101C5010995A091E9
:100F0000C002B091C1026F3F7F4F81F4FD0136975F
:100F10000190F081E02DE054FD4F2581322F3260A9
:100F200043895489452B09F451C03583CD01069777
:100F3000DC01ED91FC91E054FD4F838194818E7032
:100F40009927029709F045C01C141D041E041F04B4
:100F50000CF03FC0B1E0CB1AD108E108F108E091F4
:100F6000C002F091C10236970190F081E02DE0546B
:100F7000FD4F80890E947B03E7CF87FF1BC09C0148
:100F80002227307292FF08C085ED91E0232B09F0F3
:100F900040CF8AED91E03DCF8FED91E0232B09F01A
:100FA00038CF83EE91E035CF88EC91E032CF81ED00
:100FB00091E02FCF90E080E02CCF31E0831A9108B0
:100FC000A108B10880890E947B0356CF2360258346
:100FD000ADCFE091C002F091C10236970190F0814F
:100FE000E02DE054FD4F1486158616861786838102
:100FF000948196FF04C080EC92E00E94D7038D8913
:101000009E890E941D09C8010E941D0900E010E090
:1010100001151105E9F30E940E018823C9F30E940E
:101020000000F6CF85EF91E00E94E50280EC92E0AF
:101030000C942D030F931F93CF93DF93009759F4D4
:101040006115710541F4F0E0E0E0CF01DF91CF914F
:101050001F910F9108958B01EC016EE070E081E02B
:1010600090E00E946508FC01892B69F380E8838386
:101070000115110571F01387028781E88383809140
:10108000EA029091EB02892B21F4F093EB02E093BA
:10109000EA022097D1F2D187C0878381826083835F
:1010A0008091EC029091ED02892B79F6F093ED029C
:1010B000E093EC028091EE029091EF02892B29F6E9
:1010C000F093EF02E093EE02C0CF0F931F93CF9304
:1010D000DF93869F8001879F100D969F100D11242E
:1010E000C8010E948108EC01009729F0A80170E076
:1010F00060E00E94A609CE01DF91CF911F910F9170
:1011000008950F931F93CF93DF938230910510F4CE
:1011100082E090E0E091F202F091F30230E020E012
:10112000B0E0A0E0309799F42115310509F44AC0E8
:10113000281B390B24303105D8F58A819B81611534
:10114000710589F1FB0193838283FE0111C0408107
:1011500051810281138148175907E0F04817590758
:1011600099F4109761F012960C93129713961C93B2
:101170003296CF01DF91CF911F910F910895009387
:10118000F2021093F302F4CF2115310551F042170A
:10119000530738F0A901DB019A01BD01DF01F80115
:1011A000C1CFEF01F9CF9093F3028093F202CDCF3C
:1011B000FE01E20FF31F819391932250310939838D
:1011C0002883D7CF2091F0023091F102232B41F4F4
:1011D00020910201309103013093F1022093F0023B
:1011E00020910001309101012115310541F42DB705
:1011F0003EB74091040150910501241B350BE0914D
:10120000F002F091F102E217F307A0F42E1B3F0B5E
:101210002817390778F0AC014E5F5F4F2417350768
:1012200048F04E0F5F1F5093F1024093F0028193FC
:1012300091939FCFF0E0E0E09CCFCF93DF930097B6
:10124000E9F0FC01329713821282A091F202B09170
:10125000F302ED0130E020E01097A1F4208131810C
:10126000820F931F2091F0023091F1022817390765
:1012700009F061C0F093F102E093F002DF91CF91A9
:101280000895EA01CE17DF07E8F54A815B819E01E8
:1012900041155105B1F7E901FB83EA834991599161
:1012A000C40FD51FEC17FD0761F480819181029670
:1012B000840F951FE90199838883828193819B83A1
:1012C0008A83F0E0E0E012968D919C91139700974D
:1012D000B9F52D913C911197CD010296820F931F84
:1012E0002091F0023091F1022817390739F6309732
:1012F00051F51092F3021092F202B093F102A09312
:10130000F002BCCFD383C28340815181840F951FEB
:10131000C817D90761F44E5F5F4F88819981480FE4
:10132000591F518340838A819B8193838283211536
:10133000310509F0B0CFF093F302E093F2029ECFB3
:10134000FD01DC01C0CF13821282D7CFDC0101C0C6
:101350006D9341505040E0F70895EE0FFF1F059048
:10136000F491E02D0994AEE0B0E0E9EBF9E00C94E3
:101370006F0C0D891E898F89988D26E02C831A8326
:10138000098397FF02C080E090E801979E838D83D8
:10139000AE01455E5F4F698D7A8DCE0101960E9448
:1013A000E3094D815E8157FD0AC02F8138854217C0
:1013B00053070CF49A01020F131FF80110822E96A6
:1013C000E4E00C948B0CABE0B0E0E9EEF9E00C94B7
:1013D000610C7C013B018A01FC011782168283812A
:1013E00081FFC8C1CE0101965C01F7019381F30131
:1013F00093FD859193FF81913F01882309F453C1A7
:10140000853239F493FD859193FF81913F018532B7
:1014100029F4B70190E00E94D30BE7CF912C212C47
:10142000312CFFE1F31538F08B3211F190F480325A
:1014300009F1833229F137FC3CC020ED280F2A3016
:1014400050F536FE20C08AE0989E200D1124922E81
:1014500006C08D3291F0803371F7689430F8F30153
:1014600093FD859193FF81913F018111DACF21C0D6
:10147000689431F8689432F8F2CF689433F8EFCF7B
:10148000689434F8ECCFEAE02E9E200D1124222E31
:10149000689435F8E4CF8E3229F436FC04C16894A0
:1014A00036F8DDCF8C3619F4689437F8D8CF883603
:1014B000B1F2982F9F7D95549330E0F08336A1F1DF
:1014C0008337C1F1833509F063C02801F2E04F0E84
:1014D000511CF801C080D180692D70E036FC02C03B
:1014E0006FEF7FEFC6010E94BD0B4C01689437F887
:1014F00082010AC00C5F1F4FFFE3F98388248394A5
:10150000912C6501E89437F833FE2DC0522C8114DC
:10151000910471F5552009F468CFB70180E290E09D
:101520000E94D30B5A94F6CFF801808189830E5F15
:101530001F4FE4CF2801F2E04F0E511CF801C0808C
:10154000D180692D70E036FC02C06FEF7FEFC601DD
:101550000E94C80B4C018201D5CFB70180E290E018
:101560000E94D30B2A942814190409F0B0F7CECFA7
:10157000F60137FC859137FE81916F01B70190E04C
:101580000E94D30B51105A94F1E08F1A9108BFCFEB
:10159000843619F0893609F077C0F80137FE6BC040
:1015A00060817181828193810C5F1F4FF32DFF76E3
:1015B0003F2E97FF09C090958095709561957F4F5C
:1015C0008F4F9F4F689437F82AE030E0A5010E94C2
:1015D000030CC82ECA188C2C432C36FE0CC0E89481
:1015E00040F8C91440F434FE05C032FC03C0F32DAA
:1015F000FE7E4F2E892C44FE95C0FE01EC0DF11DA0
:101600008081803309F087C0242D297E422E842DCD
:101610008870582E43FC95C040FE8FC09C2C8214CD
:1016200018F42C0C922C981844FE91C0B70180E35A
:1016300090E00E94D30B42FE09C088E790E041FE93
:1016400002C088E590E0B7010E94D30BC91408F4EA
:101650008AC0CA94D12C9FEFC91AD90ACA0CDB1CC4
:10166000F60182916F01B70190E00E94D30BAC1498
:10167000BD04B1F74FCF60817181072E000C880B3C
:10168000990B0E5F1F4F92CFD32CE894D4F82AE029
:1016900030E0853739F1232D297FD22E8F3601F1A5
:1016A00048F48835A9F0F701868197812B96E2E10D
:1016B0000C947D0C803749F08837A9F7D4FE02C01E
:1016C0006894D2F820E130E00DC06894D4F8F6CFE9
:1016D00034FE03C0822F8660D82E20E132E002C0A3
:1016E00028E030E0F801D7FE0FC06081718182816F
:1016F00093810C5F1F4FA5010E94030CC82ECA18CE
:101700003D2CE89437F867CF6081718190E080E0EC
:101710000E5F1F4FF0CF42FC02C0839478CF8394BA
:10172000839475CF842D867809F471CFF6CFB701F5
:1017300080E290E00E94D30B83948214C0F3512C7A
:1017400073CF522C5818821408F46ECFF8CF842D22
:10175000867809F47BCF8BE241FE80E247FC8DE284
:10176000B70190E071CFB70180E390E00E94D30B06
:101770009A946CCF8FEF9FEF99CFFC010590615049
:1017800070400110D8F7809590958E0F9F1F089597
:10179000FC016150704001900110D8F78095909540
:1017A0008E0F9F1F08950F931F93CF93DF93182FD2
:1017B000092FEB018B8181FD09C01FEF0FEF812FF6
:1017C000902FDF91CF911F910F91089582FF14C048
:1017D0002E813F818C819D81281739073CF4E88157
:1017E000F981CF0101969983888310838E819F812F
:1017F00001969F838E83E3CFE885F985812F099534
:10180000892BA1F3DACFFA01AA27283051F1203130
:1018100081F1E8946F936E7F6E5F7F4F8F4F9F4F84
:10182000AF4FB1E03ED0B4E03CD0670F781F891FC6
:101830009A1FA11D680F791F8A1F911DA11D6A0F94
:10184000711D811D911DA11D20D009F468943F9147
:101850002AE0269F11243019305D3193DEF6CF0146
:101860000895462F4770405D4193B3E00FD0C9F70C
:10187000F6CF462F4F70405D4A3318F0495D31FD79
:101880004052419302D0A9F7EACFB4E0A6959795CC
:10189000879577956795BA95C9F7009761057105A2
:1018A00008959B01AC010A2E0694579547953795EC
:1018B0002795BA95C9F7620F731F841F951FA01D46
:1018C00008952F923F924F925F926F927F928F92E4
:1018D0009F92AF92BF92CF92DF92EF92FF920F93BF
:1018E0001F93CF93DF93CDB7DEB7CA1BDB0B0FB6C9
:1018F000F894DEBF0FBECDBF09942A883988488886
:101900005F846E847D848C849B84AA84B984C8841B
:10191000DF80EE80FD800C811B81AA81B981CE0F12
:10192000D11D0FB6F894DEBF0FBECDBFED010895F7
:1019300010E0C5E3D0E004C0FE010E94AD0921968D
:0A194000C633D107C9F7F894FFCFB2
:10194A000000F402800018000000000000000000FF
:10195A00E8FFE8FF0000000000001400000000009B
:10196A0000000000ECFFECFF000000000000000097
:10197A0000004403400400000000FC023204B302E9
:10198A00B0024603AD02CD01A20267024E02350241
:10199A003302F401D0010200000000000F033404F6
:1019AA00FEFFFEFF0000FD023604060000000000F4
:1019BA00C7022604FAFFFAFF0000B50228048C01C8
:1019CA000C0116019601180000000000E50210043F
:1019DA00E8FFE8FF0000F2021A04A80120012A0128
:1019EA00B2011400000000002D03FC03ECFFECFF21
:1019FA0000003A030604000000004401A400D100DC
:101A0A0091010201E000F400256C640025236C6F4B
:101A1A0000256C6F0025236C580025236C7800255F
:081A2A006C5800256C780000E7
:00000001FF
