:100000000C9459000C9481000C9481000C94810094
:100010000C9481000C9481000C9481000C9481005C
:100020000C9481000C9481000C9481000C9457096D
:100030000C9481000C9481000C9481000C9481003C
:100040000C94B5080C9481000C9425090C94FF08BD
:100050000C9481000C9481000C9481000C9481001C
:100060000C9481000C948100000000002500280001
:100070002B00040404040404040402020202020229
:10008000030303030303010204081020408001025C
:1000900004081020010204081020000000080002DB
:1000A0000100000304070000000000000000EE0A49
:1000B0004B0D11241FBECFEFD8E0DEBFCDBF13E044
:1000C000A0E0B1E0E0EFF4E202C005900D92A235AD
:1000D000B107D9F725E0A2E5B3E001C01D92AE3328
:1000E000B207E1F710E0C8E5D0E004C02197FE01B7
:1000F0000E946D0FC735D107C9F70E94860C0C947A
:100100006B120C9400001F93CF93DF93182FC091B4
:100110005C03D0915D038A3041F4E881F98101905C
:10012000F081E02D6DE0CE010995E881F981019023
:10013000F081E02D612FCE01099521E030E001979B
:1001400011F430E020E0C901DF91CF911F910895B3
:10015000CF93DF93C0915C03D0915D03E881F98177
:100160000084F185E02DCE010995892BB9F3E88152
:10017000F9810284F385E02DCE01DF91CF910994BE
:1001800090E0FC01E656FF4F2491FC01EA57FF4F37
:100190003491FC01EE58FF4FE491EE23C9F0222385
:1001A00039F0233001F1A8F4213019F1223029F17E
:1001B000F0E0EE0FFF1FE859FF4FA591B4918FB704
:1001C000F894EC91611126C030953E233C938FBF8B
:1001D00008952730A9F02830C9F0243049F78091DC
:1001E00080008F7D03C0809180008F778093800096
:1001F000DFCF84B58F7784BDDBCF84B58F7DFBCF18
:100200008091B0008F778093B000D2CF8091B00002
:100210008F7DF9CF3E2BDACFDC01ED91FC9101907F
:10022000F081E02D0994AF92BF92CF92DF92EF92CE
:10023000FF920F931F93CF93DF936C017B018B0190
:10024000040F151FEB015E01AE18BF08C017D107E0
:1002500059F06991D601ED91FC910190F081E02D6A
:10026000C6010995892B79F7C501DF91CF911F91BF
:100270000F91FF90EF90DF90CF90BF90AF900895D7
:10028000FC01538D448D252F30E0842F90E0821B9C
:10029000930B541710F0CF96089501970895FC0121
:1002A000918D828D981761F0A28DAE0FBF2FB11D79
:1002B0005D968C91928D9F5F9F73928F90E00895D1
:1002C0008FEF9FEF0895FC01918D828D981731F08B
:1002D000828DE80FF11D858D90E008958FEF9FEFDF
:1002E0000895FC01918D228D892F90E0805C9F4FB5
:1002F000821B91098F739927089580E693E00E94ED
:10030000710121E0892B09F420E0822F089580E01B
:1003100090E0892B29F00E947D0181110C9400004E
:100320000895FC01A48DA80FB92FB11DA35ABF4F8A
:100330002C91848D90E001968F739927848FA689E4
:10034000B7892C93A089B1898C91837080648C9338
:10035000938D848D981306C00288F389E02D8081E7
:100360008F7D80830895EF92FF920F931F93CF9319
:10037000DF93EC0181E0888F9B8D8C8D98131AC0E0
:10038000E889F989808185FF15C09FB7F894EE89C7
:10039000FF896083E889F989808183708064808324
:1003A0009FBF81E090E0DF91CF911F910F91FF906F
:1003B000EF900895F62E0B8D10E00F5F1F4F0F7317
:1003C0001127E02E8C8D8E110CC00FB607FCFACFD2
:1003D000E889F989808185FFF5CFCE010E949101DE
:1003E000F1CFEB8DEC0FFD2FF11DE35AFF4FF082A3
:1003F0009FB7F8940B8FEA89FB8980818062CFCF09
:10040000CF93DF93EC01888D8823B9F0AA89BB894B
:10041000E889F9898C9185FD03C0808186FD0DC036
:100420000FB607FCF7CF8C9185FFF2CF808185FF57
:10043000EDCFCE010E949101E9CFDF91CF910895D8
:10044000CF93DF93EC01E881F9810288F389E02DF5
:1004500009958F3F980731F02D813E812F5F3F4FE7
:100460003E832D83DF91CF9108958FEF9FEF089505
:1004700060E070E0CB01089590E080E00895FF9285
:100480000F931F93CF93DF938C01EB016F3F7607A0
:10049000B9F0F62EEAE06E1306C06DE0F80180892F
:1004A00091890E940C016F2DF801808991890E9429
:1004B0000C01CE01DF91CF911F910F91FF90089514
:1004C000D0E0C0E0F6CF7F928F929F92AF92BF9222
:1004D000CF92DF92EF92FF920F931F93CF93DF9310
:1004E0008C0149015A01EB01C12CD12C7601C814B1
:1004F000D904EA04FB04B4F479908AE0781206C0C7
:100500006DE0F801808991890E940C01672DF80146
:10051000808991890E940C01FFEFCF1ADF0AEF0A50
:10052000FF0AE5CFC501B401DF91CF911F910F9173
:10053000FF90EF90DF90CF90BF90AF909F908F9003
:100540007F900895CB010895CF93DF93EC018889C4
:100550009989DC01ED91FC910084F185E02D0995EC
:10056000892BA9F388899989DC01ED91FC9102849A
:10057000F385E02DDF91CF910994CF93DF93EC01C8
:1005800088899989DC01ED91FC910084F185E02D49
:100590000995892BA9F388899989DC01ED91FC9152
:1005A0000484F585E02DDF91CF9109948F929F927D
:1005B000AF92BF92CF92DF92EF92FF920F931F9371
:1005C000CF93DF938C0149015A01EB01C12CD12C4F
:1005D0007601D80150968D919C91DC01ED91FC91B2
:1005E0000284F385E02D09958F3F61F0C814D9048A
:1005F000EA04FB043CF48993BFEFCB1ADB0AEB0A55
:10060000FB0AE7CFC701B601DF91CF911F910F9190
:10061000FF90EF90DF90CF90BF90AF909F908F9022
:100620000895DC0150968D919C91DC01ED91FC9137
:100630000084F185E02D099490E080E0089590E039
:1006400080E0089508950895DC01ED91FC913697BE
:100650000190F081E02DE80FF91F80E791E0918390
:1006600080838AE791E097838683089520E731E0CD
:10067000FC01318320832AE731E037832683089504
:10068000FB0120813181FC0131832083FB01428108
:10069000538126503109F90120813181820F931F46
:1006A000FC015183408308952CE831E0FC01318343
:1006B000208326E931E0318F208F60E871E00C94CF
:1006C0004003DC01ED91FC91369720813181820F4E
:1006D000931F0C9454030895DC01ED91FC9136971F
:1006E0000190F081E02DE80FF91F8CE591E09183F6
:1006F000808386E691E09383828308952CE531E040
:10070000FC013183208326E631E033832283089580
:10071000FB0120813181FC0131832083FB01428177
:10072000538126503109F90120813181820F931FB5
:10073000FC0151834083089528EA31E0FC013183B4
:10074000208322EB31E0358B248B6CE971E00C9433
:100750008803DC01ED91FC91369720813181820F75
:10076000931F0C949C0308950895CF93DF93EC019D
:10077000E881F98136970190F081E02DE80FF91FAB
:1007800083899489DC01ED91FC910484F585E02D49
:100790000995019659F4E881F98136970190F08125
:1007A000E02DEC0FFD1F858181608583CE01DF91F7
:1007B000CF9108951F93CF93DF93EC01162F8F8570
:1007C00080FF0BC0E881F9810084F185E02D20E1F4
:1007D00044E070E060E0CE010995EB85FC85812F57
:1007E00090E02D853E85E217F30758F410832B85A2
:1007F0003C852F5F3F4F3C872B87DF91CF911F9127
:100800000895E881F981028CF38DE02DBC01CE01C1
:10081000DF91CF911F910994CF93DF93EC01E88191
:10082000F98136970190F081E02DE80FF91F838957
:1008300094890E94DA03019679F4E881F981369768
:100840000190F081E02DEC0FFD1F85812389348913
:10085000232B31F082608583CE01DF91CF91089503
:100860008360F9CFCF93DF93EC01E881F98136976C
:100870000190F081E02DE80FF91F8189928900979E
:1008800011F00E94B5036AE0CE010E940C04CE0173
:100890000E94B503CE01DF91CF9108958F929F9270
:1008A000AF92BF92CF92DF92EF92FF920F931F937E
:1008B000CF93DF938C0149015A01EB01C12CD12C5C
:1008C0007601C814D904EA04FB0464F46991C801F0
:1008D0000E94DA03019641F08FEFC81AD80AE80A9D
:1008E000F80AEFCF75016401C701B601DF91CF911E
:1008F0001F910F91FF90EF90DF90CF90BF90AF903E
:100900009F908F90089590E080E008958F929F923D
:10091000AF92BF92EF92FF920F931F93CF93DF930B
:10092000EC017B0149015A01E881F9813697019078
:10093000F081E02DE80FF91F03891489D8011F9673
:100940008C911F9780FF0BC0ED91FC910084F18585
:10095000E02D20E144E070E060E0C8010995D80195
:10096000ED91FC91008CF18DE02DA5019401B70172
:10097000C80109956F3F7F4F79F4E881F981369777
:100980000190F081E02DEC0FFD1F858123893489D2
:10099000232B71F082608583CE01DF91CF911F916F
:1009A0000F91FF90EF90BF90AF909F908F90089520
:1009B0008360F1CFCF92DF92EF92FF920F931F935C
:1009C000FB01DC0100E010E098016A01F12CE12C50
:1009D0000C151D052E053F0538F461916D930F5FD1
:1009E0001F4F2F4F3F4FF4CF840F951F1F910F9133
:1009F000FF90EF90DF90CF900895CF93DF93EC01BD
:100A00000E945403CE01DF91CF910C94DD0EDC01E6
:100A1000ED91FC91369720813181820F931F0C94C8
:100A2000FD04CF92DF92EF92FF920F931F93CF932B
:100A3000DF93EC018C819D818617970708F045C0F4
:100A40007A018B012A813B812617370718F5CB01E4
:100A5000089628173907F0F4C880D9809B838A83C9
:100A60000E94410E99838883F601CF018C199D095C
:100A70002C813D818217930750F4A881B981A80F7A
:100A8000B91F109711F080818C933196EECFC6017B
:100A90000E94DD0E8C819D818017910758F4E881BA
:100AA000F981E80FF91F309719F0D7012C912083B5
:100AB0000196F2CF1D830C83DF91CF911F910F918F
:100AC000FF90EF90DF90CF90089568177907A0F717
:100AD0007D836C83F1CFCF93DF93EC010E949C0365
:100AE000CE01DF91CF910C94DD0EDC01ED91FC91F4
:100AF000369720813181820F931F0C946B050C94E3
:100B0000DD0E0C94DD0EDC01ED91FC913697208119
:100B10003181820F931F0C9481050C94DD0E0C948F
:100B2000DD0EDC01ED91FC91369720813181820F41
:100B3000931F0C948F050C94DD0E0C94DD0EFC01BC
:100B4000808191810C94DD0EEF92FF920F931F93A1
:100B5000CF93DF931F92CDB7DEB78C017B0188E086
:100B600090E0F80193838283158214820E94410EE3
:100B7000F80191838083F701648175811982AE0148
:100B80004F5F5F4FC8010E941105F80144815581F4
:100B9000F70160817181F801808191810E94DA04FE
:100BA0000F90DF91CF911F910F91FF90EF900895DB
:100BB000CF92DF92EF92FF920F931F93CF93DF9329
:100BC0001F92CDB7DEB78C01FB01E480F580E416FF
:100BD000F50610F40E94730FE41AF50A2E153F056E
:100BE00008F47901FB01C080D180C40ED51E88E0D5
:100BF00090E0F80193838283158214820E94410E53
:100C0000F80191838083FFEFEF16FF0619F3F601D9
:100C10008081181684F41982AE014F5F5F4FB701CF
:100C2000C8010E941105F80144815581B6018081F7
:100C300091810E94DA04C8010F90DF91CF911F913A
:100C40000F91FF90EF90DF90CF9008954F925F92B9
:100C50006F927F928F929F92AF92BF92CF92DF92CC
:100C6000EF92FF920F931F93CF93DF93CDB7DEB731
:100C700064970FB6F894DEBF0FBECDBF7C01E09144
:100C8000DC04F091DD0436970190F081E02DE45210
:100C9000FB4F81899289009711F00E94B503C7012B
:100CA000FF0CAA0BBB0BE091DC04F091DD0436973E
:100CB0000190F081E02DE452FB4F2381348125FD2A
:100CC00094C026FF7BC032FF93C02CEC31E0BF9371
:100CD000AF939F938F933F932F931F9284E18F93B2
:100CE0008E010F5F1F4F1F930F930E94860F4C01C1
:100CF000990FAA08BB08E091DC04F091DD04369757
:100D00000190F081E02DE452FB4FC484D584E68449
:100D1000F784C818D908EA08FB08838194818E708B
:100D200099270FB6F894DEBF0FBECDBF049799F494
:100D30002601370114141504160417040CF45EC0C0
:100D4000D701C601F7FE03C080E090E0DC01C81ABD
:100D5000D90AEA0AFB0AA5019401B8018CED94E0D6
:100D60000E948604E091DC04F091DD043697019046
:100D7000F081E02DE452FB4F838194818E7099279E
:100D8000029709F050C0E091DC04F091DD04369741
:100D90000190F081E02DE452FB4F1C141D041E0451
:100DA0001F040CF040C081E0C81AD108E108F10826
:100DB00060898CED94E00E940C04E5CF27FF1BC0F6
:100DC000A9014427507232FF08C025ED31E0452BC0
:100DD00009F07DCF2AED31E07ACF2FED31E0452BC0
:100DE00009F075CF23EE31E072CF28EC31E06FCF00
:100DF00021ED31E06CCF30E020E069CF31E0431AE3
:100E0000510861087108E091DC04F091DD04369727
:100E10000190F081E02DE452FB4F60898CED94E06D
:100E20000E940C0487CFE091DC04F091DD0436973A
:100E30000190F081E02DE452FB4F14861586168652
:100E400017868381948196FF04C08CED94E00E9404
:100E5000B5038CED94E064960FB6F894DEBF0FBE38
:100E6000CDBFDF91CF911F910F91FF90EF90DF9059
:100E7000CF90BF90AF909F908F907F906F905F903A
:100E80004F900895CF92DF92EF92FF920F931F93AE
:100E9000CF93DF931F92CDB7DEB77C016B0188E063
:100EA00090E0F70193838283158214820E94410EA1
:100EB000F70191838083F60101900020E9F73197D3
:100EC0008F010C191D091982AE014F5F5F4FB801E8
:100ED000C7010E941105A801B601F7018081918127
:100EE0000E94DA040F90DF91CF911F910F91FF9034
:100EF000EF90DF90CF9008956F927F928F929F92A4
:100F0000AF92BF92CF92DF92FF920F931F93CF9336
:100F1000DF93CDB7DEB72F970FB6F894DEBF0FBEC5
:100F2000CDBF5C01962EF72EAE01415F5F4F60E5AD
:100F300073E0CE0108960E9442072C853D85F5019D
:100F40008481958182179307B0F1821B930B9C01DA
:100F50002F5F3F4F6901092D1F2D0C151D0558F5F9
:100F60002C853D85A801B501CE0101960E94D805CA
:100F70006C847D848D809E80A3018614970408F480
:100F8000A40169817A81888599850E94780F892BCF
:100F900041F48614970428F0FF24F394681479042C
:100FA00008F4F12CCE0101960E949F05F11005C0B6
:100FB0000F5F1F4FD2CF0FEF1FEFCE0108960E9499
:100FC0009F05C8012F960FB6F894DEBF0FBECDBFA8
:100FD000DF91CF911F910F91FF90DF90CF90BF9045
:100FE000AF909F908F907F906F9008954F925F92F7
:100FF0006F927F928F929F92AF92BF92CF92DF9229
:10100000EF92FF920F931F93CF93DF93CDB7DEB78D
:101010006D970FB6F894DEBF0FBECDBF8C017B017C
:1010200070E060E0C7010E947C074C010E94260628
:101030000E94320434018FEF681A780AB301C701A5
:101040000E947C075C010E9426060E943204250152
:10105000EFEF4E1A5E0AB201C7010E947C076C01D5
:101060000E9426060E943204AE014F5F5F4F67EE7A
:1010700071E0CE0146960E944207940150E040E0A4
:10108000B701CE0101960E94D805950128193909AA
:1010900021503109A301B701CE0108960E94D8055D
:1010A00096012A193B0921503109A201B701CE014D
:1010B0000F960E94D8058BE090E0F801938382831D
:1010C00083E090E0958384838DE490E00E94410E5C
:1010D000F80191838083F12CE12CD12CC12CF801F3
:1010E00084819581C816D906C0F4808191818E0DC6
:1010F0009F1D009759F0AE01435E5F4F61E070E0C5
:101100006C0F7D1F6E0D7F1D0E94A405FFEFCF1A8F
:10111000DF0A87E0E80EF11CE2CFCE010F960E94B5
:101120009F05CE0108960E949F05CE0101960E9460
:101130009F05CE0146960E949F05C8016D960FB689
:10114000F894DEBF0FBECDBFDF91CF911F910F91FD
:10115000FF90EF90DF90CF90BF90AF909F908F90D7
:101160007F906F905F904F9008951F920F920FB6EF
:101170000F9211242F933F938F939F93AF93BF931D
:101180008091580390915903A0915A03B0915B0349
:101190003091570323E0230F2D3758F50196A11DF9
:1011A000B11D209357038093580390935903A09344
:1011B0005A03B0935B038091530390915403A09121
:1011C0005503B09156030196A11DB11D80935303A1
:1011D00090935403A0935503B0935603BF91AF91DE
:1011E0009F918F913F912F910F900FBE0F901F9065
:1011F000189526E8230F0296A11DB11DD2CF1F928C
:101200000F920FB60F9211242F933F934F935F933A
:101210006F937F938F939F93AF93BF93EF93FF93BE
:1012200080E693E00E949101FF91EF91BF91AF9111
:101230009F918F917F916F915F914F913F912F91EE
:101240000F900FBE0F901F9018951F920F920FB620
:101250000F9211242F938F939F93EF93FF93E0911D
:101260007003F09171038081E0917603F091770330
:1012700082FD1BC09081809179038F5F8F732091D5
:101280007A03821741F0E0917903F0E0E05AFC4FD5
:10129000958F80937903FF91EF919F918F912F917B
:1012A0000F900FBE0F901F9018958081F4CF1F9262
:1012B0000F920FB60F9211242F933F934F935F938A
:1012C0006F937F938F939F93AF93BF93CF93DF934E
:1012D000EF93FF9380915203C0912104D0E087FFE8
:1012E00024C01092850010928400809152038F5F79
:1012F0008093520380915203082E000C990B8C1797
:101300009D0724F4809152038C30C4F180918400B5
:1013100090918500049680349C4908F47AC08091AD
:10132000840090918500049676C080915203082E27
:10133000000C990B8C179D07C4F6E09152038E2F79
:10134000EE0F990BFC01EE0FFF1FE80FF91FE350A2
:10135000FC4F808186FFC9CFE09152038E2FEE0FA4
:10136000990BFC01EE0FFF1FE80FF91FE350FC4F34
:10137000808160E08F730E94C000B7CF209184000D
:1013800030918500E09152038E2FEE0F990BFC01F6
:10139000EE0FFF1FE80FF91FE350FC4F8181928190
:1013A000820F931F9093890080938800E0915203ED
:1013B0008E2FEE0F990BFC01EE0FFF1FE80FF91FA8
:1013C000E350FC4F808186FF11C0E09152038E2FC5
:1013D000EE0F990BFC01EE0FFF1FE80FF91FE35012
:1013E000FC4F808161E08F730E94C000FF91EF91FC
:1013F000DF91CF91BF91AF919F918F917F916F912D
:101400005F914F913F912F910F900FBE0F901F90C2
:10141000189580E49CE990938900809388008FEF71
:1014200080935203E3CFCF93DF93EB0188819981BF
:10143000A6E0B5E011969C938E932A813B81069796
:10144000EC01E881F981EA5FFA4F3183208312963B
:101450001D921D921D921C92159781E290E094833B
:1014600083838CE095E0948B838B1582158ADF91C2
:10147000CF910895CF93DF93C6E0D5E081E290E06D
:101480009C8F8B8F1D8E1E8E1F8E86E090E0A0E0BD
:10149000B0E088A399A3AAA3BBA31CA21DA21EA26D
:1014A0001FA282E391E0998F888F80E288A71AA615
:1014B00019A61DA68CE095E09CA78BA7AC0160E85F
:1014C00071E0CE010E94130A8CE891E09983888331
:1014D00086E991E0998F888F1A8619861C861B866B
:1014E0001E861D86188A1F861A8A198A1C8A1B8ADC
:1014F0008AE391E09F838E8380E693E09F8B8E8BBF
:1015000088E08D8BDF91CF910895DB018D919C91C7
:1015100011979093DD048093DC0412962D913C91F9
:101520000697DC01ED91FC91E452FB4F318320835F
:1015300081E290E0948383838EED94E0948B838B9F
:101540001582158A0895CF93DF93CCEDD4E081E224
:1015500090E0988F8F8B198E1A8E1B8E86E090E00C
:10156000A0E0B0E08C8F9D8FAE8FBF8F18A219A224
:101570001AA21BA282E391E09D8B8C8B80E28CA34C
:101580001EA21DA219A68EED94E098A78FA3AC0110
:101590006CE971E0CE010E94850A88EA91E09983A6
:1015A000888382EB91E09D8B8C8B1E821D82188636
:1015B0001F821A8619861C861B861E861D86188A1F
:1015C0001F868AE391E09B838A8380E693E09B8B6E
:1015D0008A8B80E1898BDF91CF910895CF93DF9340
:1015E0001F92CDB7DEB7109263031092620388EEAC
:1015F00093E0A0E0B0E08093640390936503A09330
:101600006603B09367038AEB91E090936103809344
:10161000600385EC90E090936D0380936C0384EC01
:1016200090E090936F0380936E0380EC90E0909332
:1016300071038093700381EC90E090937303809327
:10164000720382EC90E0909375038093740386ECB0
:1016500090E0909377038093760310927903109231
:101660007A0310927B0310927C0360E673E08CEDAA
:1016700094E00E94A30A60E673E086E095E00E9491
:101680003A0A10925F0310925E0380E693E0909313
:101690005D0380935C0368EA70E083E890E00E9459
:1016A000DA0D90935F0380935E031092D104109241
:1016B000D0041092D2041092D3041092D404109249
:1016C000D5041092D6041092D7041092D804109228
:1016D000D9041092DA041092DB04809121048C303A
:1016E00008F00CC191E0980F909321048093CD04F1
:1016F00090E0FC01EE0FFF1FE80FF91FE350FC4FD5
:1017000088EB9BE092838183809121048C3008F0E8
:10171000F9C091E0980F909321048093CA0490E05F
:10172000FC01EE0FFF1FE80FF91FE350FC4F88EBA1
:101730009BE092838183AE014F5F5F4F6AEF71E060
:1017400083EC94E00E944207AE014F5F5F4F63E07D
:1017500072E08CEB94E00E944207AE014F5F5F4F56
:101760006DE072E085EB94E00E944207AE014F5FAE
:101770005F4F69E172E08EEA94E00E944207AE0199
:101780004F5F5F4F67E272E087EA94E00E94420792
:10179000AE014F5F5F4F66E372E080EA94E00E9423
:1017A0004207AE014F5F5F4F63E472E089E994E066
:1017B0000E944207AE014F5F5F4F61E572E082E930
:1017C00094E00E944207AE014F5F5F4F61E672E016
:1017D0008BE894E00E944207AE014F5F5F4F60E7E5
:1017E00072E084E894E00E944207AE014F5F5F4FD1
:1017F00060E872E08DE794E00E944207AE014F5F1F
:101800005F4F60E972E086E794E00E944207AE0114
:101810004F5F5F4F6FE972E08FE694E00E944207EE
:10182000AE014F5F5F4F6AEA72E088E694E00E9483
:10183000420788E090E090936404809363041092E0
:101840006604109265040E94410E90936204809396
:101850006104AE014F5F5F4F6FEB72E08AE594E089
:101860000E944207AE014F5F5F4F68ED72E083E573
:1018700094E00E944207AE014F5F5F4F63EF72E05A
:101880008CE494E00E944207AE014F5F5F4F68ED29
:1018900071E085E494E00E944207AE014F5F5F4F24
:1018A00066E173E08EE394E00E944207AE014F5F71
:1018B0005F4F69E073E087E394E00E944207AE0166
:1018C0004F5F5F4F6EE073E080E394E00E94420759
:1018D000AE014F5F5F4F61E173E089E294E00E94E7
:1018E0004207AE014F5F5F4F68E173E082E294E030
:1018F0000E9442070F90DF91CF9108958FEF809360
:10190000CD0402CF8FEF8093CA0415CFCF93DF931E
:10191000CDB7DEB72F970FB6F894DEBF0FBECDBFA1
:10192000789484B5826084BD84B5816084BD85B5BA
:10193000826085BD85B5816085BD80916E008160C6
:1019400080936E001092810080918100826080936C
:10195000810080918100816080938100809180006E
:101960008160809380008091B10084608093B10099
:101970008091B00081608093B00080917A00846093
:1019800080937A0080917A00826080937A008091BF
:101990007A00816080937A0080917A0080688093D9
:1019A0007A001092C100E0917003F091710382E01F
:1019B0008083E0916C03F0916D031082E0916E03DF
:1019C000F0916F038FEC808310927803E0917403A1
:1019D000F091750386E08083E0917203F0917303C8
:1019E000808180618083E0917203F0917303808134
:1019F00088608083E0917203F09173038081806836
:101A00008083E0917203F091730380818F7D8083E6
:101A1000AE01415F5F4F62E274E0CE0108960E9422
:101A2000A405BE01685F7F4FCE0101960E94F607B4
:101A3000E981FA812481358150E040E06081718143
:101A40008CED94E00E94860410E000E0F12CE12C83
:101A500089819A812D813E81E216F30650F4800F30
:101A6000911F0E949F058FEFE81AF80A095F1F4F28
:101A7000EFCF0E94DD0ECE0108960E949F0500E088
:101A800010E001151105E9F30E947D018823C9F3D7
:101A90000E940000F6CFCF93DF9382E294E00E9491
:101AA0009F0589E294E00E949F0580E394E00E94F4
:101AB0009F0587E394E00E949F058EE394E00E94D7
:101AC0009F0585E494E00E949F058CE494E00E94C9
:101AD0009F0583E594E00E949F058AE594E00E94BB
:101AE0009F0581E694E00E949F0588E694E00E94AD
:101AF0009F058FE694E00E949F0586E794E00E9490
:101B00009F058DE794E00E949F0584E894E00E9481
:101B10009F058BE894E00E949F0582E994E00E9473
:101B20009F0589E994E00E949F0580EA94E00E9465
:101B30009F0587EA94E00E949F058EEA94E00E9448
:101B40009F0585EB94E00E949F058CEB94E00E943A
:101B50009F0583EC94E00E949F05C091D004D09132
:101B6000D1042097E9F0E881F9810680F781E02D22
:101B7000CE010995EA89FB8980818F7E8083EA897D
:101B8000FB898081877F8083EA89FB8980818F77C9
:101B90008083EA89FB8980818F7D80838A8D898F0C
:101BA00086E095E00E9454038CED94E0DF91CF91A4
:101BB0000C949C030F931F93CF93DF93009759F4DA
:101BC0006115710541F4F0E0E0E0CF01DF91CF91C4
:101BD0001F910F9108958B01EC016EE070E081E0A0
:101BE00090E00E94250EFC01892B69F380E8838335
:101BF0000115110571F01387028781E883838091B5
:101C0000340590913505892B21F4F0933505E09347
:101C100034052097D1F2D187C08783818260838386
:101C20008091360590913705892B79F6F093370529
:101C3000E09336058091380590913905892B29F676
:101C4000F0933905E0933805C0CF0F931F93CF93DE
:101C5000DF93869F8001879F100D969F100D1124A2
:101C6000C8010E94410EEC01009729F0A80170E024
:101C700060E00E94660FCE01DF91CF911F910F911E
:101C800008950F931F93CF93DF938230910510F443
:101C900082E090E0E0913C05F0913D0530E020E0ED
:101CA000B0E0A0E0309799F42115310509F44AC05D
:101CB000281B390B24303105D8F58A819B816115A9
:101CC000710589F1FB0193838283FE0111C040817C
:101CD00051810281138148175907E0F048175907CD
:101CE00099F4109761F012960C93129713961C9327
:101CF0003296CF01DF91CF911F910F9108950093FC
:101D00003C0510933D05F4CF2115310551F04217E4
:101D1000530738F0A901DB019A01BD01DF01F80189
:101D2000C1CFEF01F9CF90933D0580933C05CDCF16
:101D3000FE01E20FF31F8193919322503109398301
:101D40002883D7CF20913A0530913B05232B41F4CE
:101D5000209102013091030130933B0520933A0515
:101D600020910001309101012115310541F42DB779
:101D70003EB74091040150910501241B350BE091C1
:101D80003A05F0913B05E217F307A0F42E1B3F0B39
:101D90002817390778F0AC014E5F5F4F24173507DD
:101DA00048F04E0F5F1F50933B0540933A058193D7
:101DB00091939FCFF0E0E0E09CCFCF93DF9300972B
:101DC000E9F0FC01329713821282A0913C05B09198
:101DD0003D05ED0130E020E01097A1F42081318134
:101DE000820F931F20913A0530913B052817390740
:101DF00009F061C0F0933B05E0933A05DF91CF9184
:101E00000895EA01CE17DF07E8F54A815B819E015C
:101E100041155105B1F7E901FB83EA8349915991D5
:101E2000C40FD51FEC17FD0761F4808191810296E4
:101E3000840F951FE90199838883828193819B8315
:101E40008A83F0E0E0E012968D919C9113970097C1
:101E5000B9F52D913C911197CD010296820F931FF8
:101E600020913A0530913B052817390739F630970C
:101E700051F510923D0510923C05B0933B05A0939F
:101E80003A05BCCFD383C28340815181840F951F13
:101E9000C817D90761F44E5F5F4F88819981480F59
:101EA000591F518340838A819B81938382832115AB
:101EB000310509F0B0CFF0933D05E0933C059ECF8E
:101EC000FD01DC01C0CF13821282D7CFDC0101C03B
:101ED0006D9341505040E0F70895EE0FFF1F0590BD
:101EE000F491E02D099481E090E0F8940C946B1249
:101EF000FB01DC014150504030F08D910190801980
:101F000019F40020B9F7881B990B0895AEE0B0E0F2
:101F1000ECE8FFE00C9442120D891E898F89988DA0
:101F200026E02C831A83098397FF02C080E090E8A3
:101F300001979E838D83AE01455E5F4F698D7A8DDB
:101F4000CE0101960E94B60F4D815E8157FD0AC0F9
:101F50002F813885421753070CF49A01020F131F83
:101F6000F80110822E96E4E00C945E12ABE0B0E033
:101F7000ECEBFFE00C9434127C013B018A01FC0184
:101F800017821682838181FFC8C1CE0101965C0150
:101F9000F7019381F30193FD859193FF81913F01B7
:101FA000882309F453C1853239F493FD859193FF59
:101FB00081913F01853229F4B70190E00E94A6117A
:101FC000E7CF912C212C312CFFE1F31538F08B3227
:101FD00011F190F4803209F1833229F137FC3CC0D1
:101FE00020ED280F2A3050F536FE20C08AE0989E5A
:101FF000200D1124922E06C08D3291F0803371F79E
:10200000689430F8F30193FD859193FF81913F012E
:102010008111DACF21C0689431F8689432F8F2CF98
:10202000689433F8EFCF689434F8ECCFEAE02E9E52
:10203000200D1124222E689435F8E4CF8E3229F435
:1020400036FC04C1689436F8DDCF8C3619F46894F8
:1020500037F8D8CF8836B1F2982F9F7D95549330BA
:10206000E0F08336A1F18337C1F1833509F063C015
:102070002801F2E04F0E511CF801C080D180692D7B
:1020800070E036FC02C06FEF7FEFC6010E94901136
:102090004C01689437F882010AC00C5F1F4FFFE3C0
:1020A000F98388248394912C6501E89437F833FEF2
:1020B0002DC0522C8114910471F5552009F468CF7C
:1020C000B70180E290E00E94A6115A94F6CFF80181
:1020D000808189830E5F1F4FE4CF2801F2E04F0E0D
:1020E000511CF801C080D180692D70E036FC02C01F
:1020F0006FEF7FEFC6010E949B114C018201D5CF8B
:10210000B70180E290E00E94A6112A9428141904D5
:1021100009F0B0F7CECFF60137FC859137FE8191FB
:102120006F01B70190E00E94A61151105A94F1E09E
:102130008F1A9108BFCF843619F0893609F077C01D
:10214000F80137FE6BC060817181828193810C5FE1
:102150001F4FF32DFF763F2E97FF09C09095809576
:10216000709561957F4F8F4F9F4F689437F82AE0A5
:1021700030E0A5010E94D611C82ECA188C2C432C21
:1021800036FE0CC0E89440F8C91440F434FE05C093
:1021900032FC03C0F32DFE7E4F2E892C44FE95C0E9
:1021A000FE01EC0DF11D8081803309F087C0242DE4
:1021B000297E422E842D8870582E43FC95C040FE07
:1021C0008FC09C2C821418F42C0C922C981844FE6E
:1021D00091C0B70180E390E00E94A61142FE09C0C1
:1021E00088E790E041FE02C088E590E0B7010E94D8
:1021F000A611C91408F48AC0CA94D12C9FEFC91A39
:10220000D90ACA0CDB1CF60182916F01B70190E07C
:102210000E94A611AC14BD04B1F74FCF608171814B
:10222000072E000C880B990B0E5F1F4F92CFD32CFB
:10223000E894D4F82AE030E0853739F1232D297F5E
:10224000D22E8F3601F148F48835A9F0F701868146
:1022500097812B96E2E10C945012803749F0883731
:10226000A9F7D4FE02C06894D2F820E130E00DC096
:102270006894D4F8F6CF34FE03C0822F8660D82E3F
:1022800020E132E002C028E030E0F801D7FE0FC0C4
:1022900060817181828193810C5F1F4FA5010E9433
:1022A000D611C82ECA183D2CE89437F867CF608144
:1022B000718190E080E00E5F1F4FF0CF42FC02C0C2
:1022C000839478CF8394839475CF842D867809F492
:1022D00071CFF6CFB70180E290E00E94A6118394FF
:1022E0008214C0F3512C73CF522C5818821408F466
:1022F0006ECFF8CF842D867809F47BCF8BE241FE38
:1023000080E247FC8DE2B70190E071CFB70180E336
:1023100090E00E94A6119A946CCF8FEF9FEF99CF17
:10232000FC010590615070400110D8F780959095A0
:102330008E0F9F1F0895FC016150704001900110A5
:10234000D8F7809590958E0F9F1F08950F931F9338
:10235000CF93DF93182F092FEB018B8181FD09C0EB
:102360001FEF0FEF812F902FDF91CF911F910F91D2
:10237000089582FF14C02E813F818C819D81281792
:1023800039073CF4E881F981CF010196998388836C
:1023900010838E819F8101969F838E83E3CFE88592
:1023A000F985812F0995892BA1F3DACFFA01AA27A4
:1023B000283051F1203181F1E8946F936E7F6E5F88
:1023C0007F4F8F4F9F4FAF4FB1E03ED0B4E03CD036
:1023D000670F781F891F9A1FA11D680F791F8A1F19
:1023E000911DA11D6A0F711D811D911DA11D20D080
:1023F00009F468943F912AE0269F11243019305D3A
:102400003193DEF6CF010895462F4770405D41932A
:10241000B3E00FD0C9F7F6CF462F4F70405D4A3377
:1024200018F0495D31FD4052419302D0A9F7EACF3F
:10243000B4E0A6959795879577956795BA95C9F76E
:1024400000976105710508959B01AC010A2E069461
:102450005795479537952795BA95C9F7620F731F1A
:10246000841F951FA01D08952F923F924F925F9257
:102470006F927F928F929F92AF92BF92CF92DF9294
:10248000EF92FF920F931F93CF93DF93CDB7DEB7F9
:10249000CA1BDB0B0FB6F894DEBF0FBECDBF09948D
:1024A0002A88398848885F846E847D848C849B84E4
:1024B000AA84B984C884DF80EE80FD800C811B81F2
:1024C000AA81B981CE0FD11D0FB6F894DEBF0FBE21
:1024D000CDBFED01089510E0C8E5D0E004C0FE01D5
:1024E0000E946D0F2196C935D107C9F7F894FFCF27
:1024F00000003E0580001800000000000000000001
:10250000E8FFE8FF000000000000140000000000E9
:1025100000000000ECFFECFF0000000000000000E5
:102520000000B3039B05000000006B038D05220330
:102530001F0383041C033C021103D602BD02A40244
:10254000A20263023F020200000000007E038F052A
:10255000FEFFFEFF00006C03910506000000000076
:1025600036038105FAFFFAFF0000240383058C017E
:102570000C01160196011800000000005403FD0430
:10258000E8FFE8FF000061030705A80120012A0118
:10259000B2011400000000009C036B05ECFFECFF8F
:1025A0000000A903750500000000B30113014001FC
:1025B000000271014F016301256C640025236C6FDB
:1025C00000256C6F0025236C580025236C780025AE
:1025D0006C5800256C780033343039373633343951
:1025E000363837333933343736004875623A204F3E
:1025F0004B0A004875623A204552520A00426F6FFA
:1026000074696E672048756200536572766F206D3D
:10261000313A204F4B0A00536572766F206D313A84
:10262000204552520A00536572766F206D323A4F40
:102630004B0A00536572766F206D323A4552520A4A
:1026400000426F6F74696E6720536572766F206DFC
:102650000052504C69646172206C3A204F4B0A0062
:1026600052504C69646172206C3A204552520A0003
:10267000426F6F74696E672052504C6964617200DA
:102680005345545550202F2F2F2F2F2F2F0A004204
:102690006F6F74696E67207C200043616C63756C9A
:1026A0006174696E6720526F757465207C200053D9
:1026B0004554555020436F6D706C65746564202FD0
:1026C0002F2F2F2F2F2F0A00426F6F74696E6720F4
:1026D000436F6D706C65746564202F2F2F2F2F2F23
:1026E0002F0A00526F75746520466F756E64212045
:1026F0002F2F2F2F2F2F2F0A002E2E2E0A00210AC8
:10270000005469636B2023003020332E3220352E95
:102710003625332E322030203025352E36203020FD
:1027200030257C30203330203025333020302030AD
:10273000253020302030257C3330203430203025A7
:022740007C001B
:00000001FF
